:100000000C949B320C94CC320C94CC320C94CC32A9
:100010000C94CC320C94CC320C94CC320C94CC3268
:100020000C94CC320C94CC320C94CC320C94CC3258
:100030000C94CC320D94009C0C94CC320C94CC32A9
:100040000C94CC320D94E5080C94CC320C94CC3248
:100050000C94CC320C94CC320D942C1C0D94319415
:100060000C94CC320C9413440C94CC320C94CC32BF
:100070000C94CC320C94CC320C94CC320C94CC3208
:100080000C94CC320C94CC320C94CC320C94CC32F8
:100090000C9457440C94CC320C94CC320C94CC324B
:1000A0000C94CC320C94CC320C94CC320C94CC32D8
:1000B0000C94CC320C94CC320C94CC320C94CC32C8
:1000C0000C94CC320C94CC320C94CC320C94CC32B8
:1000D0000C94CC320C94CC320C94CC320C94CC32A8
:1000E0000C94CC32024306430B4313432843414351
:1000F00066439043820184013E01DA019E019C0126
:100100005C01C601A401E6014C01D4017601BC01E9
:100110007401A001BE018001D801A2013401EE01E9
:10012000DC017A018C016C016C016C013601360135
:1001300036015E0142013601EC012E013801EA016F
:100140006E0140013A01BA01D201E401D601E20197
:10015000B6019801A6013A01AE018E016A01B20111
:1001600044019601B80172016001AC01A80152017D
:10017000DE016601CE014801C80160017E0158011F
:100180005401084AD73B3BCE016E84BCBFFDC12F52
:100190003D6C74319ABD56833DDA3D00C77F11BE78
:1001A000D9E4BB4C3E916BAAAABE000000803F057B
:1001B000A84CCDB2D44EB93836A9020C50B99186AC
:1001C00088083CA6AAAA2ABE000000803F07634216
:1001D00036B79BD8A71A39685618AEBAAB558C1DDE
:1001E0003CB7CC5763BD6DEDFD753EF6177231BF60
:1001F000000000803F08000000BE922449123EAB80
:10020000AAAA2ABECDCCCC4C3E00000080BEABAA30
:10021000AAAA3E00000000BF000000803F000000CE
:100220000000084178D3BB4387D1133D190E3CC36E
:10023000BD4282AD2B3E68EC8276BED98FE1A93EED
:100240004C80EFFFBE01C4FF7F3F000000000000B4
:100250000D949F380D9402740D946B7C0D947295DF
:100260000D94F91F0D9457240D94A2540D944255EA
:100270000D9477950D9409960D94B0480D94A13E78
:100280000D9490950D9452550D942E960D943D76A7
:100290000D944E960D949A210D94603F0D949D619E
:1002A0000D9489800D943C960D9460960D943A3A85
:1002B0000D945C960D94CF220D94EF3E0D94245531
:1002C0000D9465960D94C13B0D948E700D944496DB
:1002D0000D94C0440D94FF950D941C550D94869576
:1002E0000D9470890D9427960D9449530D941C53C9
:1002F0000D94972E0D940C550D9481690D9458967C
:100300000D94AA530D94873E0D949C3E0D94853D0B
:100310000D94D33B0D9497410D9414550D94F59580
:100320000D9458320D94EC880D94CA3B0D941D9693
:100330000D94D7950D94FF1F0D94E53E0D94E03E6E
:100340000D945E530D9491540D941E3F0D94E195C0
:100350000D9436960D94EA1F0D9432960D94EB95FC
:100360000D946E3C0D942B960D94F0880D94C895C9
:100370000D9421960D949A950D9433530D948D53AD
:100380000D94DC3B0D9469680D94AE200D94093FEB
:100390000D9452960D94E6880D940F310D944A9663
:1003A0000D94FC960D94A2950D9404530D94B49560
:1003B0000D9472540D94BB3E0D94E2540D944096EE
:1003C0000D94143E0D94BE950D94AA950D94383F4E
:1003D0000D94AC290D947C950D942E550D94BF541D
:1003E0006E616E00696E660048617264636F646579
:1003F000642044656661756C742053657474696E1D
:100400006773204C6F616465640053746F72656438
:100410002073657474696E677320726574726965A0
:100420007665640046696C616D656E7420736574F1
:1004300074696E67733A2044697361626C65640025
:100440002020204D32303020440046696C616D65BB
:100450006E742073657474696E67733A002020208F
:100460004D3230392053004175746F2D52657472CE
:100470006163743A20533D3020746F206469736166
:10048000626C652C203120746F20696E7465727007
:1004900072657420657874727564652D6F6E6C7901
:1004A000206D6F766573206173207265747261636D
:1004B0007473206F72207265636F766572696573FD
:1004C000002046002020204D323038205300526555
:1004D000636F7665723A20533D4578747261206C83
:1004E000656E67746820286D6D2920463A537065E3
:1004F000656420286D6D2F6D2900205A002046006C
:100500002020204D323037205300526574726163D1
:10051000743A20533D4C656E67746820286D6D29D0
:1005200020463A537065656420286D6D2F6D292033
:100530005A3A205A4C69667420286D6D290020446F
:10054000002049002020204D3330342050005049F5
:100550004420686561746265642073657474696EB3
:1005600067733A002044002049002020204D33309A
:10057000312050005049442073657474696E67736C
:100580003A00205A0020590020204D3230362058A1
:1005900000486F6D65206F666673657420286D6D09
:1005A000293A00204500205A0020590020580020F8
:1005B000420020540020204D323035205300416449
:1005C00076616E636564207661726961626C6573E1
:1005D0003A20533D4D696E206665656472617465AD
:1005E00020286D6D2F73292C20543D4D696E207489
:1005F000726176656C206665656472617465202839
:100600006D6D2F73292C20423D6D696E696D756D7E
:10061000207365676D656E742074696D6520286D43
:1006200073292C20583D6D6178696D756D2058597E
:10063000206A65726B20286D6D2F73292C20205A3B
:100640003D6D6178696D756D205A206A65726B2009
:10065000286D6D2F73292C2020453D6D6178696DC3
:10066000756D2045206A65726B20286D6D2F73298A
:100670000020540020204D32303420530041636369
:10068000656C65726174696F6E3A20533D61636396
:10069000656C65726174696F6E2C20543D7265746F
:1006A0007261637420616363656C65726174696F04
:1006B0006E00204500205A0020590020204D323085
:1006C000312058004D6178696D756D204163636517
:1006D0006C65726174696F6E20286D6D2F7332299D
:1006E0003A00204500205A0020590020204D323089
:1006F000332058004D6178696D756D2066656564BD
:10070000726174657320286D6D2F73293A0020453E
:1007100000205A0020590020204D39322058005323
:10072000746570732070657220756E69743A005339
:10073000657474696E67732053746F7265640045E5
:100740004550524F4D204572726F720020423A0060
:1007500020453A00543A005A206C6976652061645D
:100760006A757374206F7574206F662072616E678E
:10077000652E2053657474696E6720746F20302E67
:1007800020436C69636B20746F20636F6E74696EB5
:1007900075652E005A206C6976652061646A7573F0
:1007A00074206F7574206F662072616E67652E20ED
:1007B00053657474696E6720746F20300020573A57
:1007C0000020453A00543A004B494C4C3A20002254
:1007D000283229005400496E76616C6964205420E7
:1007E000636F64652E00556E6B6E6F776E204D20C3
:1007F000636F64653A202573200A004D3232302041
:1008000053256900203A2000004C414E47205345B3
:100810004C20464F524345440022283129004D3197
:10082000313320530020002E0020423A0020453A68
:1008300000543A0020503A002042403A0020403A0A
:1008400000202F003A00205400202F0020423A00C0
:10085000202F006F6B20543A002569206D696E2CA3
:100860002025692073656300496E76616C69642098
:100870004D20636F64653A202573200A00556E6B26
:100880006E6F776E204720636F64653A2025732072
:100890000A004D65736820626564206C6576656C3E
:1008A000696E67206E6F74206163746976652E00CF
:1008B0000A002020000A4D6561737572656420701E
:1008C0006F696E74733A000A5A20736561726368C7
:1008D000206865696768743A20002C004E756D20A9
:1008E000582C593A2000206D6963726F6E73004571
:1008F000786365737369766520626564206C6576DC
:10090000656C696E6720636F7272656374696F6E80
:100910003A200042656420636F7272656374696F88
:100920006E2064617461206E6F742076616C6964FE
:100930000A0042656420636F7272656374696F6E4A
:1009400020646174612076616C69640A004D4553CE
:10095000485F484F4D455F5A5F5345415243483ABF
:1009600020004D65736820626564206C6576656C57
:10097000696E67207768696C65206C6F6F702066A0
:10098000696E69736865642E000A00593A20000098
:10099000583A20003A206E6F20787920636C616DA0
:1009A00070696E670A003A20787920636C616D7017
:1009B00065642E0A00002C2063616C6962726174A8
:1009C000696F6E207A3A2000426564206C65766516
:1009D0006C696E672C20706F696E743A2000005A43
:1009E000206A697474657220646174612066726F34
:1009F0006D205A2063616C2E206E6F742076616CBE
:100A000069642E0A005A206A6974746572206461F0
:100A100074612066726F6D205A2063616C2E20769F
:100A2000616C69642E0A004E6F20636C616D7069A1
:100A30006E6720666F722066697273742063616CE2
:100A40006962726174696F6E20706F696E742E0ACC
:100A50000046697273742063616C696272617469C3
:100A60006F6E20706F696E7420636C616D70656469
:100A70002E0A00473238205730003A200054656D66
:100A800070657261747572652063616C6962726110
:100A900074696F6E20646F6E652E20436F6E74698B
:100AA0006E75652077697468207072657373696EFE
:100AB0006720746865206B6E6F622E0000205A20DC
:100AC000736869667420286D6D293A0050494E4458
:100AD000412074656D70657261747572653A2000AD
:100AE000002F3600537465703A200000205A20739E
:100AF0006869667420286D6D293A0050494E44415A
:100B00002074656D70657261747572653A20002F8E
:100B1000362028736B6970706564290053746570A2
:100B20003A2000005A45524F3A2000007374617217
:100B3000742074656D70657261747572653A200019
:100B400050494E44412070726F62652063616C6948
:100B500062726174696F6E207374617274004732DF
:100B600038205730000A00205A3A200020593A20F5
:100B70000020583A200020453A00205A3A002059D7
:100B80003A0020453A00205A3A0020593A00583A93
:100B90000043616C6962726174696F6E206661699D
:100BA0006C65642120436865636B2074686520610F
:100BB00078657320616E642072756E20616761696B
:100BC0006E2E004D323900627573793A207061756E
:100BD00073656420666F7220696E7075740062754B
:100BE00073793A2070617573656420666F72207541
:100BF00073657200627573793A2070726F63657302
:100C000073696E67002055706C6F616420696E2097
:100C100070726F6772657373004A756C203136208D
:100C20003230323100436F6D70696C65643A200078
:100C3000286E6F6E652C2064656661756C74206328
:100C40006F6E66696729004A756C20313620323034
:100C500032312031373A33323A31320020332E31BB
:100C60002E342D3333300A00737461727400466180
:100C700063746F7279205245534554001B5B324AAE
:100C80001B5B313B31484F726967696E616C205064
:100C9000727573612069331B5B323B334850727548
:100CA00073612052657365617263680025002020BE
:100CB00020202020002020202020200045524153C9
:100CC000494E4720616C6C20646174610046616329
:100CD000746F727920524553455400FFFFFF0000A6
:100CE000A0400000A0400000004000007A433333E1
:100CF00054439AD9514300000000CDCC0CC09A99BE
:100D0000193E00007A4300005243000052430000A5
:100D10000000CDCC0CC09A99193E6563686F3A000B
:100D20004572726F723A00000021104220633084D5
:100D300040A550C660E770088129914AA16BB18C2B
:100D4000C1ADD1CEE1EFF13112100273325222B5B2
:100D5000529442F772D662399318837BB35AA3BD7B
:100D6000D39CC3FFF3DEE36224433420040114E682
:100D700064C774A44485546AA54BB528850995EECB
:100D8000E5CFF5ACC58DD55336722611163006D792
:100D900076F6669556B4465BB77AA719973887DF1B
:100DA000F7FEE79DD7BCC7C448E5588668A77840DA
:100DB00008611802282338CCC9EDD98EE9AFF9486B
:100DC0008969990AA92BB9F55AD44AB77A966A71F2
:100DD0001A500A333A122AFDDBDCCBBFFB9EEB79BB
:100DE0009B588B3BBB1AABA66C877CE44CC55C2242
:100DF0002C033C600C411CAEED8FFDECCDCDDD2A0B
:100E0000AD0BBD688D499D977EB66ED55EF44E13D1
:100E10003E322E511E700E9FFFBEEFDDDFFCCF1B5A
:100E2000BF3AAF599F788F8891A981CAB1EBA10CC5
:100E3000D12DC14EF16FE18010A100C230E320043A
:100E400050254046706760B9839893FBA3DAB33DA1
:100E5000C31CD37FE35EF3B1029012F322D232358A
:100E600042145277625672EAB5CBA5A89589856E71
:100E7000F54FE52CD50DC5E234C324A014810466DA
:100E800074476424540544DBA7FAB79987B8975F81
:100E9000E77EF71DC73CD7D326F2369106B016572A
:100EA000667676154634564CD96DC90EF92FE9C8C9
:100EB00099E9898AB9ABA94458654806782768C07A
:100EC00018E1088238A3287DCB5CDB3FEB1EFBF9E1
:100ED0008BD89BBBAB9ABB754A545A376A167AF1CA
:100EE0000AD01AB32A923A2EFD0FED6CDD4DCDAA31
:100EF000BD8BADE89DC98D267C076C645C454CA21A
:100F00003C832CE01CC10C1FEF3EFF5DCF7CDF9BC0
:100F1000AFBABFD98FF89F176E367E554E745E9369
:100F20002EB23ED10EF01E7C3C3E5E2B3D3F2F5B31
:100F30005D3B2C2A225C004D3234004D323320259B
:100F400073006175746F25692E67000A002F000A0F
:100F5000002E0044656C6574696F6E206661696C73
:100F600065642C2046696C653A200046696C6520F2
:100F700064656C657465643A002E002E002E002EA8
:100F8000004E6F772066726573682066696C653AFB
:100F900020004E6F7720646F696E672066696C650C
:100FA0003A20002220706F73002220706172656EFB
:100FB000743A2200535542524F5554494E452043EE
:100FC000414C4C207461726765743A2200747279E6
:100FD000696E6720746F2063616C6C207375622D7D
:100FE00067636F64652066696C65732077697468F0
:100FF00020746F6F206D616E79206C6576656C73FF
:101000002E204D4158206C6576656C2069733A003E
:10101000256920686F757273202569206D696E756A
:101020007465730054494D454F55543A004D313164
:10103000300046756C6C20525820427566666572A9
:101040000022206661696C65643A204275666665B7
:10105000722066756C6C2100456E717565696E67EE
:1010600020746F207468652066726F6E743A202257
:10107000002200456E717565696E6720746F20747B
:1010800068652066726F6E743A20220022206661C5
:10109000696C65643A204275666665722066756C97
:1010A0006C210022005072757361206933204D4B12
:1010B00032206F6B005072757361206933204D4B85
:1010C000322072656164792E007A5F6D696E3A2014
:1010D000007A5F6D61783A20005A204F666673652A
:1010E0007400795F6D696E3A20005920767A6461E8
:1010F0006C656E6F7374206F64206D696E3A005971
:101100002064697374616E63652066726F6D206D13
:10111000696E3A00416E6F0059657300785F6D69C2
:101120006E3A200044657461696C792058595A20E0
:101130006B616C2E0058595A2063616C2E206465D7
:101140007461696C73004E796E692070726F766598
:101150006475207A206B616C6962726163692E002C
:10116000492077696C6C2072756E207A2063616CFF
:101170006962726174696F6E206E6F772E004E79AE
:101180006E692070726F766564752078797A206B4D
:10119000616C6962726163692E205A616265726571
:1011A00020746F20707269626C697A6E65203132CA
:1011B000206D696E2E00492077696C6C2072756E07
:1011C0002078797A2063616C6962726174696F6EEC
:1011D000206E6F772E2049742077696C6C207461C3
:1011E0006B6520617070726F782E203132206D69CE
:1011F0006E732E004E796E69207072656465687238
:10120000656A6920747279736B752070726F2050F3
:101210004C412E004E6F7720492077696C6C20700E
:10122000726568656174206E6F7A7A6C6520666F8E
:101230007220504C412E00446F6272792064656EBA
:101240002C206A73656D2076617365207469736BF9
:1012500061726E61204F726967696E616C205072B5
:101260007573612069332E2043686365746520615E
:1012700062796368205661732070726F7665646C62
:1012800061206B616C69627261636E696D2070725E
:101290006F636573656D3F0048692C204920616D5F
:1012A00020796F7572204F726967696E616C20508A
:1012B00072757361206933207072696E7465722E65
:1012C00020576F756C6420796F75206C696B652091
:1012D0006D6520746F20677569646520796F75206E
:1012E0007468726F756768207468652073657475BB
:1012F000702070726F636573733F005A61636E751F
:10130000207469736B6E6F7574206C696E6B7520D9
:10131000612056792062756465746520706F7374FE
:1013200075706E6520736E697A6F76617420747261
:1013300079736B75206F746163656E696D20746C71
:10134000616369746B6120646F6B7564206E6564A2
:101350006F7361686E657465206F7074696D616C20
:101360006E69207679736B792E2050726F686C6588
:10137000646E657465207369206F6272617A6B793F
:101380002076206E6173692070726972756363657F
:101390002076206B617069746F6C65204B616C699D
:1013A000627261636500492077696C6C20737461B7
:1013B000727420746F207072696E74206C696E652F
:1013C00020616E6420796F752077696C6C2067727C
:1013D000616475616C6C79206C6F776572207468DC
:1013E00065206E6F7A7A6C6520627920726F746105
:1013F00074696E6720746865206B6E6F622C20754F
:101400006E74696C20796F75207265616368206FF6
:101410007074696D616C206865696768742E20431B
:101420006865636B207468652070696374757265A4
:101430007320696E206F75722068616E64626F6FD1
:101440006B20696E20636861707465722043616C03
:101450006962726174696F6E2E004E796E69207ACE
:101460006B616C696272756A6920767A64616C6519
:101470006E6F7374206D657A69206B6F6E63656D36
:1014800020747279736B79206120706F7672636853
:10149000656D2068656174626564752E004E6F77B6
:1014A00020492077696C6C2063616C696272617499
:1014B000652064697374616E636520626574776525
:1014C000656E20746970206F6620746865206E6F89
:1014D0007A7A6C6520616E64206865617462656407
:1014E00020737572666163652E004E656A64726969
:1014F0007620706F6D6F63692073656C66746573B9
:101500007475207A6B6F6E746F6C756A69206E6586
:101510006A63617374656A736920636879627920AC
:10152000767A6E696B616A6963692070726920738B
:101530006573746176656E69207469736B61726E30
:10154000792E0046697273742C20492077696C6C7F
:101550002072756E207468652073656C667465739F
:101560007420746F20636865636B206D6F737420E3
:10157000636F6D6D6F6E20617373656D626C792042
:1015800070726F626C656D732E0053707573746545
:101590006E692057697A617264612076796D617A2B
:1015A0006520756C6F7A656E65207679736C6564FD
:1015B0006B79207673656368206B616C6962726118
:1015C0006369206120737075737469206B616C6945
:1015D000627261636E692070726F636573206F64FD
:1015E000207A616361746B752E20506F6B7261633A
:1015F0006F7661743F0052756E6E696E6720576931
:101600007A6172642077696C6C2064656C657465BE
:101610002063757272656E742063616C69627261B9
:1016200074696F6E20726573756C747320616E647B
:101630002073746172742066726F6D207468652007
:10164000626567696E6E696E672E20436F6E74699E
:101650006E75653F00436863657465206F70616BEC
:101660006F76617420706F736C65646E69206B7245
:101670006F6B206120706F7A6D656E697420767A69
:1016800064616C656E6F7374206D657A6920747225
:1016900079736B6F75206120686561746265643F62
:1016A00000446F20796F752077616E7420746F200D
:1016B000726570656174206C6173742073746570F9
:1016C00020746F20726561646A7573742064697335
:1016D00074616E6365206265747765656E206E6FF8
:1016E0007A7A6C6520616E642068656174626564F5
:1016F0003F0057697A61726461206D757A6574651F
:10170000206B64796B6F6C6976207A6E6F767520CA
:1017100073707573746974207A206D656E752043DB
:10172000616C6962726174696F6E202D3E20576929
:101730007A61726400596F752063616E20616C7705
:1017400061797320726573756D65207468652057C3
:10175000697A6172642066726F6D2043616C6962A0
:10176000726174696F6E202D3E2057697A617264D0
:101770002E004A6520746F20504C412066696C61D0
:101780006D656E743F00497320697420504C412090
:1017900066696C616D656E743F0050726F73696D40
:1017A00020766C6F7A746520504C412066696C61BC
:1017B0006D656E7420646F206578747275646572EF
:1017C000752C20706F20746520737469736B6E655F
:1017D000746520746C616369746B6F2070726F2024
:1017E0007A61766564656E692066696C616D656EA7
:1017F00074752E00506C6561736520696E73657237
:101800007420504C412066696C616D656E74207463
:101810006F207468652065787472756465722C2019
:101820007468656E207072657373206B6E6F6220D2
:10183000746F206C6F61642069742E0050726F7336
:10184000696D207A61766564746520504C4120662C
:10185000696C616D656E74206120706F2074652005
:101860006F626E6F7674652057697A617264612069
:10187000737469736B6E7574696D207265736574CA
:1018800020746C616369746B612E00506C656173C8
:1018900065206C6F616420504C412066696C616DFD
:1018A000656E7420616E64207468656E2072657365
:1018B000756D652057697A6172642062792072655E
:1018C000626F6F74696E6720746865207072696EEC
:1018D0007465722E00507265646568726976616D18
:1018E00020747279736B752E2050726F73696D203E
:1018F00063656B656A74652E005072656865617416
:10190000696E67206E6F7A7A6C652E20506C656107
:10191000736520776169742E004A652066696C6181
:101920006D656E74207A61766564656E3F004973FB
:101930002066696C616D656E74206C6F61646564AE
:101940003F00567365206A6520686F746F766F2E4E
:1019500000416C6C20697320646F6E652E204861B5
:10196000707079207072696E74696E6721005072B0
:101970006F73696D206F6369737465746520686542
:101980006174626564206120737469736B6E657441
:101990006520746C616369746B6F2E00506C6561B7
:1019A000736520636C65616E20686561746265644F
:1019B00020616E64207468656E2070726573732098
:1019C000746865206B6E6F622E0050726F73696D64
:1019D000206E61686C65646E65746520646F206D4F
:1019E000616E75616C752061206F707261767465CF
:1019F0002070726F626C656D2E20506F20746520B0
:101A00006F626E6F7674652057697A6172646120C7
:101A10007265626F6F746F76616E696D2074697341
:101A20006B61726E792E00506C656173652063681E
:101A300065636B206F75722068616E64626F6F6B97
:101A400020616E6420666978207468652070726F0A
:101A5000626C656D2E205468656E20726573756DBD
:101A600065207468652057697A6172642062792004
:101A70007265626F6F74696E67207468652070723A
:101A8000696E7465722E0057697A6172640020571E
:101A900061746368646F6720526573657400496E92
:101AA000666F726D61636500496E666F2073637265
:101AB00065656E0043656B616E69206E61207A63B7
:101AC000686C61646E75746920747279736B7920C7
:101AD0006120706F646C6F7A6B792E005761697446
:101AE000696E6720666F72206E6F7A7A6C6520610E
:101AF0006E642062656420636F6F6C696E67004B73
:101B0000616C2E207072766E6920767273747679AD
:101B1000004669727374206C617965722063616C30
:101B20002E005761697420666F7220757365722E7E
:101B30002E2E00506F757A69746520626568656D38
:101B4000207469736B7500557365642064757269E0
:101B50006E67207072696E740042796C6F207679BE
:101B600073756E7574692066696C616D656E7475E8
:101B70002075737065736E653F00576173206669E9
:101B80006C616D656E7420756E6C6F616420737529
:101B9000636365737366756C3F0056796A6D6F7524
:101BA000742066696C616D656E7400556E6C6F6152
:101BB000642066696C616D656E74005679736F752B
:101BC00076616D2066696C616D656E7400556E6C32
:101BD0006F6164696E672066696C616D656E740023
:101BE000556E6B6E6F776E20636F6D6D616E643ACC
:101BF0002022004C616469740054756E6500534482
:101C00002063617264205B466C73684169725D0099
:101C10005344206361726420205B6E6F726D616C4F
:101C20005D00537461626C6520616D6269656E74FC
:101C30002074656D70657261747572652032312D26
:101C4000323643206973206E6565646564206120C7
:101C50007269676964207374616E642069732072AD
:101C6000657175697265642E005465706C2E206B09
:101C7000616C2E20205B7A61705D0054656D702E62
:101C80002063616C2E2020205B6F6E5D00546570B8
:101C90006C2E206B616C2E20205B7679705D005479
:101CA000656D702E2063616C2E20205B6F66665D13
:101CB000005465706C6F746E69206B616C69627240
:101CC00061636520646F6B6F6E63656E612E20507B
:101CD0006F6B726163756A746520737469736B6589
:101CE0006D20746C616369746B612E0054656D7056
:101CF000657261747572652063616C69627261748A
:101D0000696F6E2069732066696E69736865642EF9
:101D100020436C69636B20746F20636F6E74696E0F
:101D200075652E005465706C2E206B616C2E202022
:101D300020202020202020200054656D702E20635C
:101D4000616C2E202020202020202020200054659F
:101D5000706C6F74610054656D706572617475723A
:101D60006500506F64706F726100537570706F72B0
:101D700074005A61737461766974207469736B00BE
:101D800053746F70207072696E740053544F5050CA
:101D900045442E2000537465707261746520746F21
:101DA0006F20686967683A20004A65207469736B20
:101DB0006F767920706C6174206E61206865617443
:101DC0006265643F00497320737465656C207368B5
:101DD000656574206F6E20686561746265643F009C
:101DE00043656C6B6F767920636173203A00546FA2
:101DF00074616C207072696E742074696D65203A2C
:101E00000046696C616D656E742063656C6B656D11
:101E1000203A00546F74616C2066696C616D656E68
:101E200074203A00436173207469736B75203A2003
:101E300020005072696E742074696D653A2020002C
:101E400046696C616D656E74203A20200046696CAD
:101E5000616D656E7420757365643A20200053745B
:101E60006174697374696B612020005374617469D3
:101E700073746963732020004368796261202D20A8
:101E8000446F736C6F206B2070726570697375207E
:101E90007374617469636B652070616D6574692129
:101EA000004572726F72202D207374617469632013
:101EB0006D656D6F727920686173206265656E2053
:101EC0006F7665727772697474656E0052796368B3
:101ED0006C6F737400537065656400547269646557
:101EE0006E6920202020205B4361735D00536F7278
:101EF000743A2020202020205B54696D655D0054D9
:101F0000726964656E692020205B5A61646E655D4C
:101F100000536F72743A2020202020205B4E6F6E99
:101F2000655D0054726964656E69205B416265633A
:101F30006564615D00536F72743A20205B416C7080
:101F400068616265745D0054726964656E692073CE
:101F50006F75626F727500536F7274696E67206679
:101F6000696C65730020536F6674776172652052E7
:101F700065736574004C65686B65207A6B6F73657B
:101F80006E693A00536C6967687420736B65773AC1
:101F9000004D6F64202020202020205B746963683E
:101FA000795D004D6F646520202020205B73696C93
:101FB000656E745D004D6F6420205B7679732E2012
:101FC00076796B6F6E5D004D6F6465205B68696745
:101FD0006820706F7765725D0053746176206B6F57
:101FE0006E632E207370696E2E0053686F772065C4
:101FF0006E642073746F70730054657A6B65207A19
:102000006B6F73656E693A00536576657265207310
:102010006B65773A004E6173746176746520746500
:10202000706C6F74753A005365742074656D7065DB
:102030007261747572653A004E6173746176656E93
:10204000690053657474696E6773004368796261EF
:10205000207A61706F6A656E6900576972696E6790
:10206000206572726F720050726F686F7A656E656C
:1020700000537761707065640053656C6620746509
:1020800073742073746172742020005469736B6FD1
:1020900076792076656E742E3A005072696E7420DF
:1020A00066616E3A005A6B6F6E74726F6C756A740B
:1020B00065203A00506C6561736520636865636BE9
:1020C000203A0053656C662074657374204F4B0092
:1020D0004E657A61706F6A656E6F20202020004E19
:1020E0006F7420636F6E6E6563746564004D6F740A
:1020F0006F72004865617465722F546865726D690E
:1021000073746F720053656E7A6F722066696C61CA
:102110006D656E74753A0046696C616D656E74200C
:1021200073656E736F723A00546F63692073650054
:102130005370696E6E696E67004E65746F636920D7
:102140007365004E6F74207370696E6E696E670000
:10215000507265646E692F6C6576792076656E7451
:102160002E0046726F6E742F6C6566742066616E09
:102170007300546573742076656E74696C61746F56
:1021800072750046616E20746573740053656C66E9
:10219000746573742073656C68616C2020005365EE
:1021A0006C6674657374206661696C6564202000D8
:1021B0004C6576792076656E742E3A004578747297
:1021C000756465722066616E3A004C65767920769A
:1021D000656E74206E61207472797363653F004C84
:1021E00065667420686F74656E642066616E3F007A
:1021F00053656C6674657374206572726F7220210A
:1022000000456E6473746F70206E6F74206869741B
:1022100000456E6473746F707300456E6473746F01
:102220007000507265646E69207469736B6F7679A3
:102230002076656E743F0046726F6E74207072690E
:102240006E742066616E3F004B6F6E74726F6C61CE
:10225000205A2061786973202000436865636B69A8
:102260006E67205A20617869732020004B6F6E746E
:10227000726F6C6120592061786973202000436877
:1022800065636B696E67205920617869732020004F
:102290004B6F6E74726F6C61205820617869732087
:1022A0002000436865636B696E6720582061786918
:1022B000732020004B6F6E74726F6C6120686F74B6
:1022C000656E64202000436865636B696E672068F3
:1022D0006F74656E642020004B6F6E74726F6C615A
:1022E0002073656E7A6F727500436865636B696E03
:1022F000672073656E736F727320004B6F6E74721C
:102300006F6C6120656E6473746F707300436865F1
:10231000636B696E6720656E6473746F7073004BD6
:102320006F6E74726F6C61206265642020202020C3
:1023300000436865636B696E6720626564202020D6
:10234000202000567365204F4B2020202020202085
:102350002020202000416C6C20636F7272656374D2
:1023600020202020202000426564202F2048656125
:102370007465720044656C6B61206F7379004178FD
:102380006973206C656E677468004F7361004178F3
:1023900069730053656C6674657374202020202077
:1023A000202020200057726974696E6720746F20A6
:1023B00066696C653A2000766F6C756D652E696E86
:1023C0006974206661696C6564002053697A653AB6
:1023D00020004B617274612076796A6D75746100BA
:1023E000436172642072656D6F76656400534420AA
:1023F0007072696E74696E67206279746520006F0F
:1024000070656E206661696C65642C2046696C6538
:102410003A20006F70656E526F6F74206661696C50
:102420006564004B6172746120766C6F7A656E61D1
:10243000004361726420696E736572746564005351
:102440004420696E6974206661696C0046696C6538
:102450002073656C65637465640046696C65206F04
:1024600070656E65643A20006572726F72207772D3
:102470006974696E6720746F2066696C65005344E7
:102480002063617264206F6B0043616E6E6F742015
:10249000656E746572207375626469723A200050CB
:1024A000726176793A0052696768743A004F626ED9
:1024B0006F766F76616E69207469736B7500526513
:1024C00073756D696E67207072696E74004F626E0D
:1024D0006F76656E69207469736B750052657375EC
:1024E0006D696E67207072696E7400506F6B7261F7
:1024F000636F76617400526573756D6520707269E3
:102500006E7400526573656E643A20004F64737494
:1025100072616E7465207469736B6F767920706C6C
:102520006174207A20686561746265642070726FDE
:1025300073696D2E00506C656173652072656D6FF7
:10254000766520737465656C2073686565742066B4
:10255000726F6D20686561746265642E0050726FE1
:1025600073696D2076796A6D65746520757279631B
:10257000686C656E652066696C616D656E7400508F
:102580006C656173652070756C6C206F7574206666
:10259000696C616D656E7420696D6D6564696174E7
:1025A000656C7900686F77746F2E70727573613324
:1025B000642E637A00686F77746F2E707275736122
:1025C00033642E636F6D00666F72756D2E70727559
:1025D000736133642E637A00666F72756D2E70724C
:1025E00075736133642E636F6D0070727573613340
:1025F000642E637A00707275736133642E636F6D3D
:10260000005469736B20706F7A6173746176656EC4
:10261000005072696E74207061757365640054694E
:10262000736B20707265727573656E005072696E9F
:10263000742061626F72746564005072696E7465B3
:102640007220646973636F6E6E65637465640050B5
:10265000726F20767973756E7574692066696C6126
:102660006D656E747520737469736B6E6574652027
:1026700070726F73696D20746C616369746B6F0045
:10268000506C656173652070726573732074686542
:10269000206B6E6F6220746F20756E6C6F616420AA
:1026A00066696C616D656E740050726F206E616852
:1026B0007261746920747279736B79206120706F14
:1026C0006B7261636F76616E6920737469736B6E90
:1026D00065746520746C616369746B6F2E00507251
:1026E000657373206B6E6F6220746F207072656803
:1026F000656174206E6F7A7A6C6520616E64206308
:102700006F6E74696E75652E006120737469736BEA
:102710006E65746520746C616369746B6F00616EC3
:102720006420707265737320746865206B6E6F62CD
:102730000050726564656872656A746520747279A8
:10274000736B7521005072656865617420746865EB
:10275000206E6F7A7A6C65210050726564656872CC
:102760006576005072656865617400506F776572B8
:1027700055700050726F73696D2063656B656A7484
:102780006500506C656173652077616974004E6502
:102790006A6472697665207A617665647465205032
:1027A0004C412066696C616D656E742070726F7348
:1027B000696D2E00506C65617365206C6F616420DB
:1027C000504C412066696C616D656E74206669725B
:1027D00073742E004A6520504C412066696C616D0F
:1027E000656E74207A61766564656E3F004973207A
:1027F000504C412066696C616D656E74206C6F6130
:102800006465643F002020506C616E6E6572427595
:102810006666657242797465733A2000556D697316
:10282000746574652070726F73696D207469736B61
:102830006F767920706C6174206E612068656174B8
:1028400062656400506C6561736520706C616365DE
:1028500020737465656C207368656574206F6E20E5
:10286000686561746265642E004E616872697661A4
:102870006E692050494E44410050494E4441204821
:10288000656174696E6700504944206B616C2E204D
:102890002020202020202020202000504944206398
:1028A000616C2E202020202020202020202000507D
:1028B0004944206B616C2E20756B6F6E63656E6191
:1028C000005049442063616C2E2066696E6973680C
:1028D000656400504944206B616C69627261636594
:1028E000005049442063616C6962726174696F6E63
:1028F00000506F7A61737461766974207469736BC8
:10290000005061757365207072696E7400556D6951
:102910007374657465206C6973742070617069727A
:1029200075206E6120706F646C6F7A6B752061200A
:102930007564727A756A7465206A656A20706F645E
:1029400020747279736B6F7520626568656D206D98
:102950006572656E69207072766E696368203420D6
:10296000626F64752E20506F6B756420747279737A
:102970006B61207A61636879746920706170697233
:102980002C207679706E657465207469736B617242
:102990006E752E00506C61636520612073686565FB
:1029A00074206F6620706170657220756E64657248
:1029B00020746865206E6F7A7A6C65206475726920
:1029C0006E67207468652063616C69627261746906
:1029D0006F6E206F66206669727374203420706F8A
:1029E000696E74732E20496620746865206E6F7A54
:1029F0007A6C652063617463686573207468652010
:102A000070617065722C20706F776572206F6666DA
:102A100020746865207072696E74657220696D6DCE
:102A20006564696174656C792E006F6B004F666632
:102A3000004E6F206D6F76652E005A61646E6120C6
:102A40005344206B61727461004E6F2053442063C5
:102A500061726400547279736B61004E6F7A7A6CA4
:102A6000650046696C616D656E74206E657A61768D
:102A70006564656E0046696C616D656E74206E6F8D
:102A800074206C6F61646564004261727661206ECF
:102A9000656E6920636973746100436F6C6F7220A7
:102AA0006E6F7420636F7272656374004E65004EC2
:102AB0006F0050726F73696D20616B7475616C6922
:102AC0007A756A74652E00506C6561736520757047
:102AD00067726164652E005679736C61206E6F7643
:102AE00061207665727A65206669726D77617265BC
:102AF0003A004E6577206669726D7761726520765F
:102B0000657273696F6E20617661696C61626C6574
:102B10003A00506F73756E6F7574205A004D6F7662
:102B200065205A00506F73756E6F75742059004D93
:102B30006F7665205900506F73756E6F75742058ED
:102B4000004D6F7665205800457874727564657223
:102B5000004B616C696272616365205A2E204F746C
:102B60006163656E696D20746C616369746B61206B
:102B7000706F73756E7465205A206F737520617A5B
:102B8000206B7E686F726E696D7520646F72617AFA
:102B9000752E20506F74767264746520746C616356
:102BA00069746B656D2E0043616C69627261746952
:102BB0006E67205A2E20526F7461746520746865A8
:102BC000206B6E6F6220746F206D6F766520746865
:102BD00065205A2063617272696167652075702093
:102BE000746F2074686520656E642073746F7070F4
:102BF0006572732E20436C69636B207768656E2065
:102C0000646F6E652E004B616C6962726163652052
:102C100058595A2E204F746163656E696D20746C2B
:102C2000616369746B6120706F73756E7465205A8F
:102C3000206F737520617A206B7E686F726E696D8C
:102C40007520646F72617A752E20506F747672648D
:102C5000746520746C616369746B656D2E004361EB
:102C60006C6962726174696E672058595A2E2052DD
:102C70006F7461746520746865206B6E6F62207478
:102C80006F206D6F766520746865205A20636172CD
:102C9000726961676520757020746F2074686520A3
:102CA000656E642073746F70706572732E20436C50
:102CB00069636B207768656E20646F6E652E0050C7
:102CC0006F73756E6F7574206F7375004D6F7665D9
:102CD0002061786973004D65736820426564204CFB
:102CE0006576656C696E67005465706C6F74790009
:102CF00054656D706572617475726573004B616CBB
:102D00006962726163650043616C696272617469D2
:102D10006F6E00207A203900206F662039004D65E3
:102D200072696D207265666572656E636E69207684
:102D300079736B75206B616C69627261636E69682F
:102D40006F20626F6475004D6561737572696E679F
:102D5000207265666572656E63652068656967687F
:102D600074206F662063616C6962726174696F6E52
:102D700020706F696E74004D6572656E65207A6BA8
:102D80006F73656E693A004D656173757265642095
:102D9000736B65773A00486C61766E69206E61628C
:102DA00069646B61004D61696E004D3232312049BA
:102DB0006E76616C696420657874727564657220E2
:102DC000004D32313820496E76616C696420657837
:102DD00074727564657220004D32303020496E7611
:102DE000616C696420657874727564657220005244
:102DF00065706F7274696E6720656E6473746F704E
:102E000020737461747573004D313137204B616CE0
:102E10002E207072766E6920767273747679004D0A
:102E2000313137204669727374206C617965722084
:102E300063616C2E004649524D574152455F4E41E9
:102E40004D453A4D61726C696E2056312E302E32EE
:102E50003B20537072696E7465722F6772626C20CA
:102E60006D617368757020666F722067656E3620BD
:102E70004649524D574152455F55524C3A68747419
:102E800070733A2F2F6769746875622E636F6D2FA8
:102E9000707275736133642F50727573612D69336D
:102EA0002D506C75732F2050524F544F434F4C5F31
:102EB00056455253494F4E3A312E30204D414348EA
:102EC000494E455F545950453A50727573612069B7
:102ED00033204D4B322045585452554445525F43A0
:102EE0004F554E543A3120555549443A30303030E0
:102EF000303030302D303030302D303030302D30DB
:102F00003030302D303030303030303030303030C4
:102F10000A004D31303920496E76616C6964206554
:102F20007874727564657220004D31303520496EB9
:102F300076616C69642065787472756465722000CE
:102F40004D31303420496E76616C69642065787447
:102F50007275646572200055766F6C6E656E6120C7
:102F600072656D656E69636B61004C6F6F73652090
:102F700070756C6C6579005A61766573742066694A
:102F80006C616D656E74004C6F61642066696C6184
:102F90006D656E74005A61766164656E692066695C
:102FA0006C616D656E7475004C6F6164696E67204D
:102FB00066696C616D656E740043697374656E69F2
:102FC000206261727679004C6F6164696E6720637C
:102FD0006F6C6F72004C6576793A004C6566743A96
:102FE000005679626572206A617A796B6100536577
:102FF0006C656374206C616E67756167650043651D
:103000007374696E6100456E676C697368004B4943
:103010004C4C45442E2000496E76616C69642065F5
:103020007874727564657200566C6F7A7465206688
:10303000696C616D656E7400496E736572742066AB
:10304000696C616D656E7400547279736B2E2076B5
:10305000656E743A004E6F7A7A6C652046414E3A3E
:1030600000457874727564657220696E666F004BF6
:10307000616C696272756A69205A0043616C6962A9
:10308000726174696E67205A004B616C696272618B
:103090006365204F4B0043616C6962726174696FB4
:1030A0006E20646F6E65004B616C6962726F766151
:1030B00074205A0043616C696272617465205A0021
:1030C0005A6168726976616E69204F4B2E004865BF
:1030D0006174696E6720646F6E652E005A61687254
:1030E0006976616E690048656174696E6700564172
:1030F000524F56414E493A204E657A6E616D612CB1
:10310000206E65706F64706F726F76616E6120768D
:1031100065727A65206669726D776172652E2050DE
:103120006F757A697469206E6120766C6173746E54
:1031300069206E6562657A70656369210057415246
:103140004E494E473A205468697320697320616E76
:1031500020756E6F6666696369616C2C20756E738D
:103160007570706F72746564206275696C642E206E
:1031700055736520617420796F7572206F776E20AA
:103180007269736B21002046726565204D656D6F15
:1031900072793A20005469736B61726E61206E65BA
:1031A00062796C61206A65737465207A6B616C6901
:1031B00062726F76616E612E20506F7374757075D8
:1031C0006A74652070726F73696D20706F646C65CE
:1031D000206D616E75616C752C206B617069746F08
:1031E0006C61205A6163696E616D652C206F647338
:1031F000746176656320506F73747570206B616CB9
:103200006962726163652E005072696E7465722026
:10321000686173206E6F74206265656E2063616CF7
:1032200069627261746564207965742E20506C65E2
:1032300061736520666F6C6C6F7720746865206DB4
:10324000616E75616C2C20636861707465722046D4
:10325000697273742073746570732C207365637462
:10326000696F6E2043616C6962726174696F6E2070
:10327000666C6F772E00507275746F6B00466C6FC2
:103280007700446F6B6F6E636F76616E6920706F4D
:10329000687962750046696E697368696E67206D4A
:1032A0006F76656D656E747300207A203400206F30
:1032B00066203400486C6564616D206B616C6962E6
:1032C0007261636E6920626F6420706F646C6F7AE4
:1032D0006B7900536561726368696E67206265642B
:1032E0002063616C6962726174696F6E20706F69CE
:1032F0006E7400446F6E6520736176696E67206638
:10330000696C652E00446F6E65207072696E746919
:103310006E672066696C6500536F75626F72206E10
:10332000656B6F6D706C65746E692E20506F6B727B
:1033300061636F7661743F0046696C6520696E63F6
:103340006F6D706C6574652E20436F6E74696E7559
:103350006520616E797761793F004E656B746572A7
:103360006520736F75626F7279206E656275646F28
:103370007520736574726964656E792E204D61786D
:10338000696D616C6E6920706F63657420736F7511
:10339000626F72752070726F2073657472696465F4
:1033A0006E69206A65203130302E00536F6D6520C4
:1033B00066696C65732077696C6C206E6F7420622F
:1033C0006520736F727465642E204D61782E204ED7
:1033D0006F2E206F662066696C657320696E2031E0
:1033E00020666F6C64657220666F7220736F7274F2
:1033F000696E67206973203130302E0053656E7A14
:103400006F722066696C616D656E74750046696CDB
:10341000616D656E742073656E736F720046696CC2
:10342000616D656E74207679746C6163656E206180
:103430002073707261766E652062617276793F00EA
:1034400046696C616D656E74206578747275646927
:103450006E672026207769746820636F72726563D7
:103460007420636F6C6F723F0056796D656E69747E
:103470002066696C616D656E74004368616E676596
:103480002066696C616D656E7400527963686C6F5B
:1034900073742076656E742E0046616E20737065BD
:1034A0006564004B6F6E74722E2076656E742E5BB1
:1034B0007A61705D0046616E7320636865636B209E
:1034C00020205B6F6E5D004B6F6E74722E207665F0
:1034D0006E742E5B7679705D0046616E7320636852
:1034E00065636B20205B6F66665D00656E71756558
:1034F000696E6720220045787472756465720020D9
:1035000045787465726E616C205265736574005005
:1035100072696E7465722073746F70706564206474
:10352000756520746F206572726F72732E20466904
:103530007820746865206572726F7220616E6420F5
:10354000757365204D39393920746F207265737435
:103550006172742E202854656D7065726174757285
:10356000652069732072657365742E20536574201D
:103570006974206166746572207265737461727417
:10358000696E6729004E6F204C696E65204E756D1F
:10359000626572207769746820636865636B737510
:1035A0006D2C204C617374204C696E653A20004E7E
:1035B0006F20436865636B73756D2077697468204D
:1035C0006C696E65206E756D6265722C204C61733E
:1035D00074204C696E653A200020746F6F206C6F08
:1035E0006E6720657874727573696F6E207072658E
:1035F00076656E746564004C696E65204E756D620B
:103600006572206973206E6F74204C617374204C56
:10361000696E65204E756D6265722B312C204C6190
:103620007374204C696E653A20005072696E74653F
:10363000722068616C7465642E206B696C6C28293B
:103640002063616C6C6564210020636F6C6420658D
:103650007874727573696F6E2070726576656E74BA
:10366000656400636865636B73756D206D69736D68
:10367000617463682C204C617374204C696E653AE8
:10368000200043485942413A004552524F523A00B5
:10369000456E642066696C65206C697374006F7098
:1036A000656E0054524947474552454400656E6473
:1036B00073746F7073206869743A2000536C656589
:1036C000702E2E2E005679706E6F7574206D6F748B
:1036D0006F72790044697361626C65207374657000
:1036E00070657273004E65706C61746E6520686FF2
:1036F000646E6F7479206E6173746176656E692E85
:10370000204275646520706F757A69746F207679D0
:1037100063686F7A69205049442C20457374657042
:1037200073206174642E004F6C6420736574746937
:103730006E677320666F756E642E204465666175D2
:103740006C74205049442C20457374657073206557
:1037500074632E2077696C6C206265207365742E0B
:1037600000446174756D3A00446174653A00506FAD
:10377000757A6520616B7475616C6E690043757252
:1037800072656E740020436F756E7420583A200085
:1037900056796D656E61206F6B3F004368616E679F
:1037A000656420636F72726563746C793F005A635D
:1037B000686C6164697400436F6F6C646F776E004E
:1037C00050726F2075737065736E6F75206B616CCE
:1037D000696272616369206F6369737465746520DF
:1037E00070726F73696D207469736B6F766F75207B
:1037F000747279736B752E20506F74767264746571
:1038000020746C616369746B656D2E00506C65612A
:10381000736520636C65616E20746865206E6F7AD5
:103820007A6C6520666F722063616C696272617484
:10383000696F6E2E20436C69636B207768656E201C
:10384000646F6E652E00446F6A656C79206F6261EB
:10385000205A20766F7A696B79206B7E686F726E62
:10386000696D7520646F72617A753F0041726520E1
:103870006C65667420616E64207269676874205A92
:103880007E63617272696167657320616C6C20751B
:10389000703F00204C6173742055706461746564DE
:1038A0003A20005679626572746520657874727585
:1038B0006465723A0043686F6F736520657874724F
:1038C000756465723A0050726F73696D206F74652C
:1038D00076726574652069646C65722061206D6123
:1038E0006E75616C6E65206F64737472616E746561
:1038F0002066696C616D656E742E00506C65617335
:1039000065206F70656E2069646C657220616E64FD
:103910002072656D6F76652066696C616D656E7489
:10392000206D616E75616C6C792E005A6D656E61EB
:103930002075737065736E6121004368616E676501
:10394000207375636365737321005661726F7661CE
:103950006E693A20646F736C6F206B65207A6D65B9
:103960006E652074797075207469736B61726E79FD
:103970002E005761726E696E673A207072696E74BC
:1039800065722074797065206368616E6765642E66
:10399000005661726F76616E693A20646F736C6F66
:1039A000206B65207A6D656E652074797075206D69
:1039B0006F74686572626F617264752E0057617210
:1039C0006E696E673A206D6F74686572626F6172BE
:1039D000642074797065206368616E6765642E0089
:1039E0005661726F76616E693A20646F736C6F20F6
:1039F0006B65207A6D656E652074797075207469C9
:103A0000736B61726E792061206D6F74686572628C
:103A10006F617264752E005761726E696E673A202D
:103A2000626F7468207072696E7465722074797048
:103A30006520616E64206D6F74686572626F61727B
:103A4000642074797065206368616E6765642E0018
:103A50005469736B207A205344005072696E74204D
:103A600066726F6D205344005465706C6F742E2025
:103A70006B616C6962726163650054656D702E20C4
:103A800063616C6962726174696F6E005A6B616C1C
:103A90006962726F7661740043616C69627261740D
:103AA000650052657365742058595A206B616C69C2
:103AB00062722E0052657365742058595A206361F2
:103AC0006C6962722E004B616C6962726163652081
:103AD00058595A0043616C69627261746520585983
:103AE0005A002042726F776E206F75742052657392
:103AF000657400426567696E2066696C65206C6953
:103B00007374004B616C6962726163652058595A25
:103B1000206E65707265736E612E204C657679201B
:103B2000707265646E6920626F64206D6F632076C9
:103B300070726564752E0058595A2063616C696211
:103B4000726174696F6E20636F6D70726F6D6973EF
:103B500065642E204C6566742066726F6E742063F7
:103B6000616C6962726174696F6E20706F696E74E6
:103B7000206E6F7420726561636861626C652E00EF
:103B80004B616C6962726163652058595A206E6599
:103B9000707265736E612E20507265646E69206B61
:103BA000616C69627261636E6920626F6479206D15
:103BB0006F63207670726564752E0058595A2063C1
:103BC000616C6962726174696F6E20636F6D70728F
:103BD0006F6D697365642E2046726F6E7420636129
:103BE0006C6962726174696F6E20706F696E747354
:103BF000206E6F7420726561636861626C652E006F
:103C00004B616C6962726163652058595A20762055
:103C1000706F7261646B752E20582F59206F737905
:103C2000206D69726E65207A6B6F73656E652E20EC
:103C3000446F627261207072616365210058595A45
:103C40002063616C6962726174696F6E20616C6C73
:103C50002072696768742E20582F59206178657327
:103C60002061726520736C696768746C7920736B6E
:103C7000657765642E20476F6F64206A6F6221004C
:103C80004B616C6962726163652058595A207620D5
:103C9000706F7261646B752E205A6B6F73656E69FD
:103CA0002062756465206175746F6D617469636B02
:103CB00079207679726F766E616E6F2070726920EE
:103CC0007469736B752E0058595A2063616C696270
:103CD000726174696F6E20616C6C207269676874C0
:103CE0002E20536B65772077696C6C2062652063AA
:103CF0006F72726563746564206175746F6D617451
:103D00006963616C6C792E004B616C6962726163EE
:103D1000652058595A2073656C68616C612E204B80
:103D2000616C69627261636E6920626F6420706F9A
:103D3000646C6F7A6B79206E656E616C657A656E06
:103D40002E0058595A2063616C6962726174696F00
:103D50006E206661696C65642E2042656420636133
:103D60006C6962726174696F6E20706F696E742025
:103D7000776173206E6F7420666F756E642E004BD2
:103D8000616C6962726163652058595A20762070AF
:103D90006F7261646B752E20582F59206F737920D4
:103DA0006A736F75206B6F6C6D652E20477261743E
:103DB000756C756A69210058595A2063616C696293
:103DC000726174696F6E206F6B2E20582F592061BD
:103DD000786573206172652070657270656E6469C4
:103DE00063756C61722E20436F6E67726174756CBF
:103DF0006174696F6E7321004B616C6962726163FB
:103E0000652058595A2073656C68616C612E204E8C
:103E100061686C65646E65746520646F206D616EA9
:103E200075616C752E0058595A2063616C69627215
:103E30006174696F6E206661696C65642E20506CD8
:103E40006561736520636F6E73756C74207468654B
:103E5000206D616E75616C2E004B616C69627261E0
:103E600063652058595A2073656C68616C612E2017
:103E70004C65767920707265646E6920626F64208B
:103E80006D6F63207670726564752E2053726F7645
:103E90006E656A7465207469736B61726E752E004D
:103EA00058595A2063616C6962726174696F6E203F
:103EB0006661696C65642E204C6566742066726F5D
:103EC0006E742063616C6962726174696F6E2070D8
:103ED0006F696E74206E6F742072656163686162D1
:103EE0006C652E004B616C69627261636520585984
:103EF0005A2073656C68616C612E20507265646E27
:103F000069206B616C69627261636E6920626F64C3
:103F100079206D6F63207670726564752E20537200
:103F20006F766E656A7465207469736B61726E7505
:103F30002E0058595A2063616C6962726174696F0E
:103F40006E206661696C65642E2046726F6E742007
:103F500063616C6962726174696F6E20706F696E03
:103F60007473206E6F7420726561636861626C6542
:103F70002E004B616C696272616365205A20736523
:103F80006C68616C612E2053656E736F72206A6578
:103F9000206F64706F6A656E79206E65626F207045
:103FA0007265727573656E79206B6162656C2E2027
:103FB00043656B616D206E612072657365742E00C0
:103FC000426564206C6576656C696E672066616920
:103FD0006C65642E2053656E736F72206469736321
:103FE0006F6E6E6563746564206F72206361626CCE
:103FF000652062726F6B656E2E2057616974696E01
:104000006720666F722072657365742E004B616C59
:10401000696272616365205A2073656C68616C61C6
:104020002E2053656E736F72206E657365706E75AA
:104030006C2E205A6E6563697374656E61207472AC
:1040400079736B613F2043656B616D206E612072F7
:10405000657365742E00426564206C6576656C69D5
:104060006E67206661696C65642E2053656E736FA0
:1040700072206469646E7420747269676765722E59
:1040800020446562726973206F6E206E6F7A7A6C5D
:10409000653F2057616974696E6720666F72207290
:1040A000657365742E004B616C6962726163652093
:1040B0005A2073656C68616C612E2053656E736F56
:1040C00072207365706E756C207072696C697320F4
:1040D0007679736F6B6F2E2043656B616D206E6117
:1040E0002072657365742E00426564206C65766588
:1040F0006C696E67206661696C65642E2053656E1D
:10410000736F722074726967676572656420746F7B
:104110006F20686967682E2057616974696E67202F
:10412000666F722072657365742E005A61687269D9
:1041300076616E692062656400426564204865614D
:1041400074696E6700426564204F4B2E00426564BF
:1041500020646F6E650056707261766F205B756DBE
:104160005D00526967687420736964655B756D5D95
:1041700000526573657400567A61647520205B7522
:104180006D5D00526561722073696465205B756DB9
:104190005D004B6F72656B636520706F646C6F7A46
:1041A0006B7900426564206C6576656C20636F7284
:1041B0007265637400566C65766F20205B756D5D6B
:1041C000004C6566742073696465205B756D5D00E5
:1041D000567072656475205B756D5D0046726F6E1A
:1041E0007420736964655B756D5D00426564004EA3
:1041F000656E69207A6B616C6962726F76616E615F
:1042000020767A64616C656E6F7374207472797352
:104210006B79206F64207469736B6F766520706FA3
:10422000646C6F7A6B792E20506F73747570756A39
:1042300074652070726F73696D20706F646C652097
:104240006D616E75616C752C206B617069746F6C3B
:1042500061205A6163696E616D652C206F647374AF
:1042600061766563204E6173746176656E69207056
:1042700072766E69207672737476792E0044697353
:1042800074616E6365206265747765656E2074691C
:1042900070206F6620746865206E6F7A7A6C652076
:1042A000616E64207468652062656420737572664F
:1042B00061636520686173206E6F74206265656E4E
:1042C00020736574207965742E20506C6561736568
:1042D00020666F6C6C6F7720746865206D616E75F9
:1042E000616C2C206368617074657220466972731A
:1042F000742073746570732C2073656374696F6EBA
:10430000204669727374206C617965722063616CF8
:104310006962726174696F6E2E00446F6C616465CE
:104320006E69206F7379205A004C6976652061644C
:104330006A757374205A0041646A757374696E6794
:10434000205A004D6F64205B6175746F6D617469F4
:10435000636B795D004D6F6465205B6175746F20E0
:10436000706F7765725D004175746F20686F6D6561
:1043700000207C20417574686F723A200056736586
:1043800000416C6C004163746976652045787472F5
:10439000756465723A2000B510A510C910D110D906
:1043A00010E210FF10EA10181114111C113511241D
:1043B0001160114611B6117E111412F411981237C2
:1043C00012A613FB129D145A144315EA14F6158A0B
:1043D00015A11655163517F21686177217F4179A87
:1043E000178B183C18F918D5182E1919195119429C
:1043F000199C196E19271ACA19871A8E1AA81A9E9B
:104400001ADC1AB41A111BFF1A221B471B331B7A22
:104410001B591BAB1B9A1BCD1BBB1BE01BF91BF3D2
:104420001BFE1B101C221C7B1C691C9F1C8D1CEC82
:104430001CB11C391D241D561D4E1D6A1D621D8098
:104440001D721D8B1D951DC51DA91DEE1DE01D13A3
:104450001E011E321E241E4D1E401E6B1E5E1EA11E
:104460001E781ED51ECC1EED1EDB1E111FFF1E3535
:104470001F231F571F471F651F841F751FA31F91F1
:104480001FC71FB51FEA1FD91F0820F91F272015B6
:1044900020422038205A204B207120672079209A12
:1044A000208B20B420A520C320DF20D020ED20F3D6
:1044B0002017210521302128214321392162215053
:1044C00021832172219E218C21BC21B021DF21CAB0
:1044D00021F021012211221A22372222225A2248B7
:1044E000227E226C22A2229022C622B422E922D865
:1044F000220D23FB2231231F235523432367237ED1
:104500002374238E238A239323A523B723CA23E06E
:1045100023D223ED23FF231324312423243F244CCF
:10452000245A2468247E248924A6249F24BE24ADF2
:1045300024DC24CD24F624EB24032535250C257F0B
:10454000255D25B525A425D825C725F525EA2511FE
:104550002601262C261E263A2680264F26DE26A950
:10456000261E27092745273127632759276B2782CE
:10457000277327B4278E27ED27D427052844281C26
:1045800028792869289B288728C128AF28E128D3C3
:10459000280129F12894290D292A2A2D2A312A496E
:1045A0002A3A2A5B2A542A752A622A9A2A892AAF29
:1045B0002AAC2AC72AB22AF22AD72A1D2B122B2F5D
:1045C0002B242B412B362B482BA72B512B5E2C0653
:1045D0002CCC2CBF2CD62CF02CE82C072DFD2C1825
:1045E0002D132D472D1E2D872D772DA52D962DAA08
:1045F0002DC12DD82DEF2D1F2E082E352E122F292F
:104600002F402F6A2F572F872F772FA82F952FC72F
:104610002FB92FDB2FD52FEE2FE12F0630FE2F0ED7
:10462000301730383028305530483061307B306FAB
:104630003096308930B430A730CE30C030E630DC30
:10464000303D31EE308631083295317D327632950B
:10465000328232AE32A932D332B432F33205333839
:10466000331833AB335A330D34FC3340341D347AB2
:1046700034693499348A34B534A334D934C734EB2B
:1046800034F634FF340F358535AF35D935F7352A53
:1046900036493663368936823690369E36A336AD35
:1046A00036BC36D436C5362737E536683761377DB0
:1046B000376E3785379B379037B737AE370C38C0F2
:1046C000376C3846389338B538A338FB38C6383A93
:1046D000392B3972394A39BD399139173AE0395A8B
:1046E0003A503A7A3A683A983A8C3AB43AA23AD47A
:1046F0003AC63AE23AF33A373B033BBB3B803B3D99
:104700003C003CC73C803C423D083DB73D7F3D26D8
:104710003EF83DA03E593E323FE43EC03F723F5618
:10472000400D40E840A64039412B414D4145416292
:10473000415641714183417741A3419241C141B505
:1047400041DC41D041EB417D42EF4129431A4337DF
:1047500043554343436743714381437D43854366E8
:10476000696E642062656420696E64756374696F44
:104770006E2073656E736F7220706F696E74207A2D
:1047800000457872656D65207370616E206F6620DC
:10479000746865205A2076616C75657321005361D9
:1047A00076696E67206265642063616C696272611C
:1047B00074696F6E20766563746F727320746F20F6
:1047C000454550524F4D0050657270656E64696387
:1047D000756C6172697479005A65726F20706F69C7
:1047E0006E7420636F7272656374696F6E3A0059FC
:1047F00020766563746F72206C656E6774683A002A
:104800005820766563746F72206C656E6774683AC1
:1048100000203C20005741524E494E473A204672F4
:104820006F6E7420706F696E74206E6F7420726585
:1048300061636861626C652E205920636F6F7264DA
:10484000696E6174653A000070745B315D3A0070A6
:10485000745B305D3A00004D656173757265643A52
:10486000000063757272656E745F706F736974694E
:104870006F6E5B5A5F415849535D3A000063757231
:1048800072656E745F706F736974696F6E5B595F88
:10489000415849535D3A000063757272656E745FEA
:1048A000706F736974696F6E5B585F415849535DEF
:1048B0003A00417420592D340041742059300000D1
:1048C000636E74725B315D3A0000636E74725B30CC
:1048D0005D3A00007665635F795B315D3A00007692
:1048E00065635F795B305D3A00007665635F785B96
:1048F000315D3A00007665635F785B305D3A005663
:104900006563746F72733A200049746572617469EB
:104910006F6E3A2000000043616C63756C617465D2
:10492000206F666673657420616E6420736B6577B3
:104930002072657475726E696E6720726573756C2E
:10494000743A000000292C206572726F723A2000C0
:104950002C2000293B207461726765743A2028007E
:104960002C2000293B206D656173757265642D6391
:104970006F727265637465643A2028002C20006DA4
:10498000656173757265643A202800706F696E7492
:10499000202300446966666572656E636520616602
:1049A00074657220636F7272656374696F6E3A200A
:1049B00000002C200063656E7465722C2061646AAF
:1049C00075737465643A2000002C200059207665C8
:1049D00063746F722C2061646A75737465643A2025
:1049E00000002C20005820766563746F722C2061C3
:1049F000646A75737465643A200000636E74725B58
:104A0000315D3A0000636E74725B305D3A00466956
:104A10006E616C20636E74722076616C7565733A9A
:104A20000000000077793A0000636E74725B315DBC
:104A30003A00005765696768745F793A00007778D3
:104A40003A0000636E74725B305D3A00005765692E
:104A50006768745F783A000056657279206C6974F3
:104A6000746C6520736B6577206465746563746529
:104A7000642E204F7274686F676F6E616C697A691B
:104A80006E672074686520617865732E00004D6143
:104A9000782E206572726F72206575636C69646927
:104AA000616E3A004D61782E206572726F722059E6
:104AB0003A004D61782E206572726F7220583A006C
:104AC0004D61782E206572726F72733A0000002C6F
:104AD000206572726F7220593A20002C2065727224
:104AE0006F7220583A20006572726F723A20002966
:104AF000002C2000293B207461726765743A2028DD
:104B0000002C2000293B20636F727265637465641A
:104B10003A2028002C20006D656173757265643A37
:104B2000202800002C206572726F72203E206D617B
:104B3000782E206572726F72206575636C69646986
:104B4000616E00506F696E74206E6F74206F6E20FE
:104B5000666972737420726F77003A00706F696EC5
:104B6000742023004572726F722061667465722032
:104B7000636F7272656374696F6E3A2000002C2057
:104B80000063656E746572206E65772C20696E76A1
:104B900065727465643A2000002C20005920766507
:104BA00063746F72206E65772C20696E76657274FF
:104BB00065643A2000002C20005820766563746FED
:104BC00072206E65772C20696E7665727465643A22
:104BD0002000002C2000636F7272656374696F6E31
:104BE00020616E676C65733A2000002C2000636FB3
:104BF0007272656374656420616E676C65733A20D8
:104C000000002C2000636F72726563746564207805
:104C10002F793A2000002C20002C20002C20003B73
:104C200020636F7272656374696F6E20766563745A
:104C30006F723A2000697465726174696F6E3A2010
:104C40000000292C206572726F723A20002C20001F
:104C5000293B207461726765743A2028002C20007B
:104C6000206D656173757265643A202800706F6904
:104C70006E74202300002C200063656E7465722C16
:104C800020696E697469616C3A2000002C2000591B
:104C900020766563746F722C20696E697469616C2B
:104CA0003A2000002C20005820766563746F722C27
:104CB00020696E697469616C3A200063616C637588
:104CC0006C617465206D616368696E6520736B65E6
:104CD0007720616E64206F6666736574204C5300A4
:104CE00000004041000000C000005C43000000C024
:104CF00000005C4300003E430000404100003E4392
:104D000000004041000000C00000E442000000C07C
:104D100000005743000000C0000057430000BC42A1
:104D20000000E4420000BC42000040410000BC42E0
:104D30000000404100003E430000E44200003E43CA
:104D40000000574300003E4345303A20005A3A20C5
:104D500000593A2000583A20004D53312C4D53321F
:104D60002050696E730A005A00205A3A00590020F8
:104D7000593A00580020583A0024F4D43050C38ED9
:104D800020C2A24017828B7011127A910D816CD9CA
:104D90000AA861E108C7586607615143061E4B5DCA
:104DA00005C145A7041A411104093D980371393121
:104DB000034036DB0265339102D4305402802E1D4D
:104DC00002632CEE01752AC501B028A001102781CD
:104DD000018F2564012B244B01E0223401AC211FFB
:104DE000018D200D01801FFC00841EED00971DDF4A
:104DF00000B81CD200E61BC600201BBC00641AB21F
:104E000000B219A8000A19A0006A189900D11791D8
:104E10000040178B00B516840031167E00B315795B
:104E2000003A157300C7146F0058146A00EE136639
:104E3000008813630025135E00C7125B006C1257D5
:104E40000015125400C111510070114F0021114B77
:104E500000D61049008D1047004610440002104251
:104E600000C00F4000800F3E00420F3C00060F3B89
:104E700000CB0E3800930E37005C0E3500270E3441
:104E800000F30D3200C10D3100900D3000600D2E89
:104E900000320D2D00050D2C00D90C2B00AE0C2975
:104EA00000850C29005C0C2700350C27000E0C2611
:104EB00000E80B2400C40B2400A00B23007D0B236F
:104EC000005A0B2100390B2100180B2000F80A1F93
:104ED00000D90A1E00BB0A1E009D0A1D00800A1D83
:104EE00000630A1C00470A1B002C0A1B00110A1A47
:104EF00000F7091A00DD091900C4091900AB0919E6
:104F000000920917007B091800630917004C091665
:104F10000036091600200916000A091500F50815C3
:104F200000E0081400CC081400B8081400A4081409
:104F300000900813007D0812006B08130058081237
:104F4000004608120034081100230811001208114D
:104F50000001081100F0071000E0071000D0071052
:104F600000C0071000B0070F00A107100091070E46
:104F70000083070F0074070F0065070E0057070E28
:104F80000049070E003B070D002E070E0020070DFD
:104F90000013070D0006070D00F9060C00ED060DC5
:104FA00000E0060C00D4060C00C8060C00BC060C81
:104FB00000B0060C00A4060B0099060C008D060B31
:104FC0000082060B0077060B006C060B0061060AD8
:104FD0000057060B004C060A0042060A0038060A73
:104FE000002E060A0024060A001A060A0010060906
:104FF0000007060A00FD050900F4050900EB050994
:1050000000E2050900D9050900D0050900C7050916
:1050100000BE050900B5050800AD050800A5050995
:10502000009C050800940508008C0508008405080C
:10503000007C050800740508006C0507006505087C
:10504000005D050700560508004E050700470507E7
:10505000004005080038050700310507002A05074C
:1050600000230507001C050600160507000F0507AD
:10507000000805060002050700FB040600F504070A
:1050800000EE040600E8040600E2040700DB040664
:1050900000D5040600CF040600C9040600C30406B8
:1050A00000BD040600B7040600B1040500AC040608
:1050B00000A6040600A00405009B04060095040554
:1050C00000900406008A040500850405008004069B
:1050D000007A04050075040500700405006B0405E2
:1050E0000066040500610405005C04050057040522
:1050F00000520405004D0405004804050043040562
:10510000003E0404003A04050035040500300404A0
:10511000002C04050027040400230405001E0404D9
:10512000001A04040016040500110404000D040410
:1051300000090405000404040000040400FC030446
:1051400000F8030400F4030400F0030400EC03047B
:1051500000E8030400E4030400E0030400DC0304AB
:1051600000D8030400D4030400D0030400CC0304DB
:1051700000C8030300C503030024F404D9201BC4A2
:105180000C5C0E9804C4095F0265077101F405F90F
:1051900000FB04B30048048700C1036900580355AD
:1051A0000003034500BE023A008402310053022A84
:1051B000002902250004022000E4011C00C8011996
:1051C00000AF011700980114008401130071011051
:1051D000006101100051010E0043010D0036010B6A
:1051E000002B010B0020010B00150109000C010927
:1051F0000003010800FB000800F3000800EB0007B3
:1052000000E4000600DE000600D8000600D200061A
:1052100000CC000500C7000500C2000500BD000469
:1052200000B9000400B5000400B1000400AD0004A2
:1052300000A9000400A5000300A20003009F0004D1
:10524000009B0003009800030095000200930003F8
:1052500000900003008D0002008B00030088000214
:10526000008600020084000300810002007F00022B
:10527000007D0002007B000200790002007700013F
:10528000007600020074000200720001007100024A
:10529000006F0002006D0001006C0002006A000156
:1052A000006900020067000100660001006500015E
:1052B0000064000200620001006100010060000162
:1052C000005F0002005D0001005C0001005B000166
:1052D000005A000100590001005800010057000168
:1052E0000056000100550001005400010053000069
:1052F0000053000100520001005100010050000164
:10530000004F0001004E0000004E0001004D000162
:10531000004C0001004B0000004B0001004A00015E
:10532000004900010048000000480001004700015A
:105330000046000000460001004500000045000155
:10534000004400010043000000430001004200004F
:105350000042000100410000004100010040000146
:10536000003F0000003F0001003E0000003E000141
:10537000003D0000003D0001003C0000003C00003A
:10538000003C0001003B0000003B0001003A00002F
:10539000003A000100390000003900010038000027
:1053A000003800000038000100370000003700011D
:1053B0000036000000360000003600010035000015
:1053C000003500000035000100340000003400000A
:1053D00000340001003300000033000000330001FE
:1053E00000320000003200000032000100310000F5
:1053F00000310000003100010030000000300000EA
:1054000000300001002F0000002F0000002F0000DE
:10541000002F0001002E0000002E0000002E0001D1
:10542000002D0000002D0000002D0000002D0001C7
:10543000002C0000002C0000002C0000002C0001BB
:10544000002B0000002B0000002B0000002B0001AF
:10545000002A0000002A0000002A0000002A0001A3
:105460000029000000290000002900000029000098
:10547000002900010028000000280000002800008A
:10548000002800000028000100270000002700007D
:105490000027000000270000002700010026000070
:1054A0000026000000260000002600000026000163
:1054B0000025000000250000002500000025000058
:1054C0000025000000250001002400000024000049
:1054D000002400000024000000240001002300003C
:1054E0000023000000230000002300000023000030
:1054F0000023000000230001002200000022000021
:105500000022000000220000002200000022000112
:105510000021000000210000002100000021000007
:1055200000210000002100000021000100200000F7
:1055300000200000002000000020000000200000EB
:10554000002000000020000000200001001F0000DB
:10555000001F0000001F0000001F0000001F0000CF
:10556000001F0000001F0001001E0000001E0000C0
:10557000001E0000001E0000004572723A204D49D6
:105580004E54454D50204245440054656D7065723F
:105590006174757265206865617465642062656414
:1055A000207377697463686564206F66662E204D8A
:1055B000494E54454D502074726967676572656441
:1055C0002021004572723A204D415854454D5020DB
:1055D0004245440054656D70657261747572652052
:1055E00068656174656420626564207377697463BB
:1055F000686564206F66662E204D415854454D50B5
:105600002074726967676572656420210045727253
:105610003A204D494E54454D50003A204578747219
:1056200075646572207377697463686564206F665A
:10563000662E204D494E54454D502074726967675F
:10564000657265642021004572723A204D415854BC
:10565000454D50003A204578747275646572207328
:1056600077697463686564206F66662E204D4158C3
:1056700054454D50207472696767657265642021D6
:105680000020484F54454E4420544845524D414C0B
:105690002052554E415741590020484541544245FA
:1056A0004420544845524D414C2052554E4157419B
:1056B0005900544845524D414C2052554E41574196
:1056C000590042454420544845524D414C205255C2
:1056D0004E415741590020544845524D414C2052AB
:1056E000554E415741592028205052454845415474
:1056F00020484F54454E44290020544845524D41BE
:105700004C2052554E41574159202820505245486F
:105710004541542048454154424544290050524592
:1057200048454154204552524F5200424544205072
:10573000524548454154204552524F520050494429
:10574000204175746F74756E652066696E69736843
:105750006564212050757420746865206C617374D1
:10576000204B702C204B6920616E64204B642063B9
:105770006F6E7374616E74732066726F6D206162F8
:105780006F766520696E746F20436F6E666967750A
:10579000726174696F6E2E680050494420417574BF
:1057A0006F74756E65206661696C6564212074692B
:1057B0006D656F75740020403A00543A00423A001B
:1057C000504944204175746F74756E652066616937
:1057D0006C6564212054656D7065726174757265C5
:1057E00020746F6F206869676800204B643A20005E
:1057F000204B693A2000204B703A200020436C6116
:10580000737369632050494420002054753A200086
:10581000204B753A2000206D61783A2000206D6998
:105820006E3A200020643A200020626961733A20B9
:10583000001000C90210012C014001220170011862
:1058400001B0010E01F00104015002FA00B002F0B3
:10585000003003E600D003DC009004D2007005C8DD
:1058600000A006BE000008B400B009AA00D00BA03A
:1058700000600E960060118C0000158200201978DF
:1058800000C01D6E00A0226400B0275A00902C506A
:105890000000314600E0343C0010383200903A28D5
:1058A00000603C1E00A03D1400803E0A00203F0026
:1058B0000070012C0190012701B0012201C0011DDF
:1058C00001F00118011002130130020E01600209FB
:1058D0000190020401C002FF000003FA004003F53A
:1058E000008003F000D003EB002004E6007004E128
:1058F00000E004DC004005D700C005D2004006CD22
:1059000000D006C8008007C3003008BE00F008B908
:1059100000C009B400B00AAF00B00BAA00D00CA5BB
:1059200000000EA000500F9B00C010960050129176
:105930000000148C00C0158700B0178200B0197DDC
:1059400000D01B7800001E730040206E009022697A
:1059500000F024640040275F0090295A00E02B5596
:1059600000102E500020304B0010324600E0334132
:105970000090353C001037370070383200A0392DC8
:1059800000B03A2800A03B2300603C1E00103D19E7
:1059900000903D1400103E0F00703E0A00C03E050E
:1059A00000003F0000436F6E74696E756520776973
:1059B000746820616E6F7468657220626F776465C9
:1059C0006E3F0053746174653A2000473736004DCE
:1059D0003435205A004D3435004738300020003E21
:1059E000003E0020003E003E003E003E0020003E03
:1059F000003E00200000002D2D2D2D2D2D2D2D2DB4
:105A00002D2D2D2D2D2D2D2D2D2D2D004E2F4100E9
:105A10004E2F41006D6D00004D373031004D373055
:105A20003200496E76616C6964205049442063619C
:105A30006C2E20726573756C74732E204E6F7420FB
:105A400073746F72656420746F20454550524F4DDA
:105A50002E004D353030004731205A313520463147
:105A60003530300047393100473120583530205922
:105A7000313930204530204637303030004739301A
:105A8000004D373032004D3730322043004D373033
:105A9000322055004D373032004731205A31352001
:105AA00046313530300047393100473120583530E4
:105AB0002059313930204530204637303030004DC4
:105AC000383300473930004D3834004D3130342000
:105AD0005330004D3834004731205831302059318F
