:100000000C94505F0C94815F0C94815F0C94815F21
:100010000C94815F0C94815F0C94815F0C94815FE0
:100020000C94815F0C94815F0C94815F0C94815FD0
:100030000C94815F0D9405CE0C94815F0C94815FCC
:100040000C94815F0D9435340C94815F0C94815F26
:100050000C94815F0C94815F0D9448470D9436C6D3
:100060000C94815F0C94BE6E0C94815F0C94815F44
:100070000C94815F0C94815F0C94815F0C94815F80
:100080000C94815F0C94815F0C94815F0C94815F70
:100090000C94815F0C94815F0C94815F0C94815F60
:1000A0000C94815F0C94815F0C94815F0C94815F50
:1000B0000C94815F0C94815F0C94815F0C94815F40
:1000C0000C94815F0C94815F0C94815F0C94FE6EA4
:1000D0000C94815F0C94815F0C94815F0C94815F20
:1000E0000C94815FFA014001B8018E01D6012E0106
:1000F000F201920134018C0152014E01D201C00182
:100100005001680136017401AC0160017601CE0135
:1001100088015C019401E201EE01F601FC01CA01D3
:10012000DC014C017E01B201B201B201F401F40123
:10013000F401C401A001F4013E012C01DA017201B5
:1001400070014401E0013A013001BC015801CC01C9
:10015000D4017A01E401E00180015E01F001A60111
:10016000C601C2019A01BA01B4014A019E01A4016B
:1001700078019C018A0132015A01B401AA012A01C5
:100180009001084AD73B3BCE016E84BCBFFDC12F16
:100190003D6C74319ABD56833DDA3D00C77F11BE78
:1001A000D9E4BB4C3E916BAAAABE000000803F057B
:1001B000A84CCDB2D44EB93836A9020C50B99186AC
:1001C00088083CA6AAAA2ABE000000803F07634216
:1001D00036B79BD8A71A39685618AEBAAB558C1DDE
:1001E0003CB7CC5763BD6DEDFD753EF6177231BF60
:1001F000000000803F08000000BE922449123EAB80
:10020000AAAA2ABECDCCCC4C3E00000080BEABAA30
:10021000AAAA3E00000000BF000000803F000000CE
:100220000000084178D3BB4387D1133D190E3CC36E
:10023000BD4282AD2B3E68EC8276BED98FE1A93EED
:100240004C80EFFFBE01C4FF7F3F000000000000B4
:100250000D94A9A80D9461C80D9477C70D94F54726
:100260000D94A7C70D9453C80D9415480D94736D44
:100270000D942A770D949FC70D94F5BA0D946E874F
:100280000D94A3470D9475BB0D9495C70D94EB5F2A
:100290000D94CE4E0D9437C80D944C870D94E46C9C
:1002A0000D943A6D0D9421480D9449500D94D44EFF
:1002B0000D94B9C70D9457C80D94B6850D94FAC71F
:1002C0000D945D850D9450A20D945D6A0D94D668D1
:1002D0000D94696D0D946B6C0D9401C90D94724E63
:1002E0000D948BC70D9481C70D947D6D0D9475850C
:1002F0000D9445C80D94DCC70D94387F0D94548738
:100300000D94F0C70D9440520D949C9B0D94595E32
:100310000D94A2850D944FC80D9419480D94CD47A6
:100320000D9465C80D9413480D94CA850D943A67D1
:100330000D94F1BA0D9426C80D9449C80D943BC88C
:100340000D9492870D94E4370D9441C80D9430C8F4
:100350000D94546A0D945DC80D94976D0D94F19DA4
:100360000D9483120D945C870D946AC80D944B6AAA
:100370000D94BF470D942CC80D94AFC70D94CE9328
:100380000D941B6D0D9422C80D9464870D9433C891
:100390000D94426A0D94FF860D94C3C70D948C850D
:1003A0000D94A0AD0D94FE6C0D94CDC70D94E74750
:1003B0000D945FB40D947CC70D9422870D94EBBA15
:1003C0000D940EC80D94EA850D94E6C70D949A4BD2
:1003D0000D945E7A0D9470A60D948D5B0D94B2868B
:1003E0000D9404C80D940F480D9482870D94D18606
:1003F0000D94076B0D9495470D94E2860D94FC4C7B
:100400000D94BF4E6E616E00696E66004861726445
:10041000636F6465642044656661756C7420536520
:100420007474696E6773204C6F6164656400537403
:100430006F7265642073657474696E67732072658A
:10044000747269657665640046696C616D656E7489
:100450002073657474696E67733A204469736162CE
:100460006C6564002020204D323030204400466905
:100470006C616D656E742073657474696E67733A30
:10048000002020204D3230392053004175746F2DEB
:10049000526574726163743A20533D3020746F204A
:1004A00064697361626C652C203120746F20696E01
:1004B0007465727072657420657874727564652DE8
:1004C0006F6E6C79206D6F76657320617320726535
:1004D000747261637473206F72207265636F7665E6
:1004E00072696573002046002020204D323038208C
:1004F00053005265636F7665723A20533D457874B8
:100500007261206C656E67746820286D6D292046C5
:100510003A537065656420286D6D2F6D2900205A4F
:10052000002046002020204D3230372053005265F5
:1005300074726163743A20533D4C656E6774682031
:10054000286D6D2920463A537065656420286D6DCD
:100550002F6D29205A3A205A4C69667420286D6DF7
:1005600029002044002049002020204D3330342031
:100570005000504944206865617462656420736569
:100580007474696E67733A0020440020490020208B
:10059000204D33303120500050494420736574742D
:1005A000696E67733A00205A0020590020204D32AE
:1005B0003036205800486F6D65206F66667365742D
:1005C00020286D6D293A00204500205A002059004E
:1005D00020580020420020540020204D3230352089
:1005E0005300416476616E6365642076617269616F
:1005F000626C65733A20533D4D696E206665656493
:100600007261746520286D6D2F73292C20543D4D27
:10061000696E2074726176656C20666565647261CE
:10062000746520286D6D2F73292C20423D6D696EF5
:10063000696D756D207365676D656E742074696D85
:100640006520286D73292C20583D6D6178696D7582
:100650006D205859206A65726B20286D6D2F7329A3
:100660002C20205A3D6D6178696D756D205A206A85
:1006700065726B20286D6D2F73292C2020453D6DF0
:100680006178696D756D2045206A65726B20286DF3
:100690006D2F73290020540020204D323034205318
:1006A00000416363656C65726174696F6E3A2053D3
:1006B0003D616363656C65726174696F6E2C205473
:1006C0003D7265747261637420616363656C657209
:1006D0006174696F6E00204500205A002059002087
:1006E000204D3230312058004D6178696D756D2094
:1006F000416363656C65726174696F6E20286D6D0E
:100700002F7332293A00204500205A00205900203A
:10071000204D3230332058004D6178696D756D2061
:1007200066656564726174657320286D6D2F732929
:100730003A00204500205A0020590020204D39322F
:1007400020580053746570732070657220756E694F
:10075000743A0053657474696E67732053746F72D2
:1007600065640020423A0020453A00543A005A207D
:100770007368696674206170706C6965643A000A18
:10078000005A206C6976652061646A757374206F05
:100790007574206F662072616E67652E20536574D4
:1007A00074696E6720746F20302E20436C69636B10
:1007B00020746F20636F6E74696E75652E005A2009
:1007C0006C6976652061646A757374206F75742036
:1007D0006F662072616E67652E2053657474696E52
:1007E0006720746F20300020573A0020453A0054AB
:1007F0003A004175746F0020452F443D00416476F6
:10080000616E6365204B3D0022005400496E7661A5
:100810006C6964205420636F64652E00496E7661B4
:100820006C6964204D20636F64652E004D32323058
:100830002053256900203A2000004C414E472053A8
:10084000454C20464F52434544002200205A3A006E
:1008500020593A0020453A00205A3A0020593A00DF
:10086000583A0030303030303030302D3030303089
:100870002D303030302D303030302D303030303081
:10088000303030303030300020555549443A003156
:10089000002045585452554445525F434F554E54DD
:1008A0003A005072757361206933204D4B3200203D
:1008B0004D414348494E455F545950453A00312E09
:1008C0003000206261736564206F6E204D61726C30
:1008D000696E204649524D574152455F55524C3A38
:1008E00068747470733A2F2F6769746875622E6329
:1008F0006F6D2F707275736133642F5072757361F1
:100900002D4669726D776172652050524F544F4386
:100910004F4C5F56455253494F4E3A004649524D4F
:10092000574152455F4E414D453A50727573612DA6
:100930004669726D7761726520004D313133205305
:100940000020002E0020423A0020453A00543A0090
:100950002042403A0020403A00202F003A00205424
:1009600000202F0020423A00202F006F6B20543AC5
:10097000003B207072696E742074696D6520726529
:100980006D61696E696E6720696E206D696E733A7C
:10099000200053494C454E54204D4F44453A205079
:1009A000657263656E7420646F6E653A20003B204B
:1009B0007072696E742074696D652072656D61690D
:1009C0006E696E6720696E206D696E733A20004E05
:1009D0004F524D414C204D4F44453A205065726373
:1009E000656E7420646F6E653A20002569206D691C
:1009F0006E2C2025692073656300496E76616C69F1
:100A000064204D20636F6465004D657368206265E6
:100A100064206C6576656C696E67206E6F7420610A
:100A200063746976652E000A002020000A4D656116
:100A3000737572656420706F696E74733A000A5A38
:100A400020736561726368206865696768743A201D
:100A5000002C004E756D20582C593A2000476F200D
:100A6000686F6D652066696E6973686564004D65C1
:100A7000736820626564206C6576656C696E6720BA
:100A800061637469766174656400557073616D703B
:100A90006C652066696E69736865640042656420F0
:100AA0006C6576656C696E6720636F7272656374DE
:100AB000696F6E2066696E697368656400206D6990
:100AC00063726F6E73004578636573736976652032
:100AD000626564206C6576656C696E6720636F7211
:100AE00072656374696F6E3A200042656420636FBB
:100AF0007272656374696F6E2064617461206E6FD9
:100B0000742076616C69640A0042656420636F72C8
:100B100072656374696F6E20646174612076616CC4
:100B200069640A0062616279737465702061707033
:100B30006C69656400636C65616E20757020666920
:100B40006E697368656420004D4553485F484F4D9A
:100B5000455F5A5F5345415243483A20004D657303
:100B60006820626564206C6576656C696E672077C5
:100B700068696C65206C6F6F702066696E69736858
:100B800065642E00006D65736820626564206C6585
:100B900076656C696E673A20000A00593A200000B9
:100BA000583A20003A206E6F20787920636C616D8E
:100BB00070696E670A003A20787920636C616D7005
:100BC00065642E0A00002C2063616C696272617496
:100BD000696F6E207A3A2000426564206C65766504
:100BE0006C696E672C20706F696E743A200000008B
:100BF0005A206A6974746572206461746120667237
:100C00006F6D205A2063616C2E206E6F74207661A8
:100C10006C69642E0A005A206A69747465722064D3
:100C20006174612066726F6D205A2063616C2E20A2
:100C300076616C69642E0A004E6F20636C616D7082
:100C4000696E6720666F72206669727374206361D3
:100C50006C6962726174696F6E20706F696E742E58
:100C60000A0046697273742063616C696272617410
:100C7000696F6E20706F696E7420636C616D706552
:100C8000642E0A0047323820573000473238205748
:100C9000300054656D7065726174757265206361B2
:100CA0006C6962726174696F6E20646F6E652E206C
:100CB000436F6E74696E7565207769746820707211
:100CC000657373696E6720746865206B6E6F622E42
:100CD0000000205A20736869667420286D6D293AD7
:100CE0000054656D70657261747572653A2000001C
:100CF0002F3600537465703A2000005A45524F3A1F
:100D000020000050494E44412070726F626520639C
:100D1000616C6962726174696F6E20737461727460
:100D200000473238205730000A00205A3A2000206D
:100D3000593A200020583A2000256920686F7572C2
:100D400073202569206D696E757465730054494D73
:100D5000454F55543A004D3131300046756C6C208A
:100D6000525820427566666572004D3239006275D0
:100D700073793A2070617573656420666F722069BB
:100D80006E70757400627573793A20706175736561
:100D90006420666F72207573657200627573793AAC
:100DA0002070726F63657373696E67002055706C95
:100DB0006F616420696E2070726F67726573730073
:100DC00020202020334420205072696E7465727395
:100DD00020202020002020204F726967696E616CFE
:100DE00020507275736120202000466163746F7219
:100DF00079205245534554004A756C2031362032D3
:100E000030323100436F6D70696C65643A200028A0
:100E10006E6F6E652C2064656661756C7420636FFF
:100E20006E66696729004A756C203136203230328F
:100E3000312031323A31353A32370073746172748D
:100E40000020202020334420205072696E74657287
:100E50007320202020002020204F726967696E6176
:100E60006C20507275736120202000250020202006
:100E700020202000202020202020004552415349DE
:100E80004E4720616C6C206461746100466163743C
:100E90006F72792052455345540022206661696C77
:100EA00065643A204275666665722066756C6C21D1
:100EB00000456E717565696E6720746F2074686592
:100EC0002066726F6E743A2022002200456E7175A2
:100ED00065696E6720746F207468652066726F6E36
:100EE000743A20220022206661696C65643A2042CF
:100EF00075666665722066756C6C21002200FFFFC6
:100F0000FF0000A0400000A0400000004000007A68
:100F100043333354439AD9514300000000CDCC0CE5
:100F2000C09A99193E00007A4300005243000052D3
:100F30004300000000CDCC0CC09A99193E6563684F
:100F40006F3A004572726F723A0000002110422021
:100F500063308440A550C660E770088129914AA19A
:100F60006BB18CC1ADD1CEE1EFF131121002733211
:100F70005222B5529442F772D662399318837BB3EA
:100F80005AA3BDD39CC3FFF3DEE3622443342004A1
:100F90000114E664C774A44485546AA54BB528853A
:100FA0000995EEE5CFF5ACC58DD5533672261116F1
:100FB0003006D776F6669556B4465BB77AA719978A
:100FC0003887DFF7FEE79DD7BCC7C448E558866879
:100FD000A7784008611802282338CCC9EDD98EE9DA
:100FE000AFF9488969990AA92BB9F55AD44AB77A51
:100FF000966A711A500A333A122AFDDBDCCBBFFB2A
:101000009EEB799B588B3BBB1AABA66C877CE44C60
:10101000C55C222C033C600C411CAEED8FFDECCD79
:10102000CDDD2AAD0BBD688D499D977EB66ED55E30
:10103000F44E133E322E511E700E9FFFBEEFDDDFC9
:10104000FCCF1BBF3AAF599F788F8891A981CAB155
:10105000EBA10CD12DC14EF16FE18010A100C23087
:10106000E3200450254046706760B9839893FBA342
:10107000DAB33DC31CD37FE35EF3B1029012F322D7
:10108000D2323542145277625672EAB5CBA5A89592
:1010900089856EF54FE52CD50DC5E234C324A01427
:1010A00081046674476424540544DBA7FAB7998722
:1010B000B8975FE77EF71DC73CD7D326F236910677
:1010C000B01657667676154634564CD96DC90EF96A
:1010D0002FE9C899E9898AB9ABA9445865480678C7
:1010E0002768C018E1088238A3287DCB5CDB3FEB82
:1010F0001EFBF98BD89BBBAB9ABB754A545A376A17
:10110000167AF10AD01AB32A923A2EFD0FED6CDD51
:101110004DCDAABD8BADE89DC98D267C076C645C66
:10112000454CA23C832CE01CC10C1FEF3EFF5DCF61
:101130007CDF9BAFBABFD98FF89F176E367E554EB6
:10114000745E932EB23ED10EF01E7C3C3E5E2B3D73
:101150003F2F5B5D3B2C2A225C004D3234004D3228
:1011600033202573006175746F25692E67004E6FFB
:1011700074205344207072696E74696E6700534422
:10118000207072696E7420706175736564000A0066
:101190002F000A002E0044656C6574696F6E20662E
:1011A00061696C65642C2046696C653A200046696B
:1011B0006C652064656C657465643A002E002E00D1
:1011C0002E002E004E6F7720667265736820666968
:1011D0006C653A20004E6F7720646F696E672066F9
:1011E000696C653A20002220706F730022207061C4
:1011F00072656E743A2200535542524F5554494E0F
:10120000452043414C4C207461726765743A22005A
:10121000747279696E6720746F2063616C6C2073DF
:1012200075622D67636F64652066696C65732077EE
:1012300069746820746F6F206D616E79206C6576BB
:10124000656C732E204D4158206C6576656C206965
:10125000733A005072757361206933204D4B322010
:101260006265726569742E0050727573612069330E
:10127000204D4B3220676F746F7761005072757329
:1012800061206933204D4B3220707265702E005002
:1012900072757361206933204D4B322070726F6E0E
:1012A00074612E005072757361206933204D4B328A
:1012B000206F6B005072757361206933204D4B3283
:1012C0002072656164792E007A5F6D696E3A200044
:1012D0007A5F6D61783A20005A204F6666736574B4
:1012E00000795F6D696E3A20005920456E7466651D
:1012F000726E756E6720766F6D206D696E004F643B
:101300006C65676C6F73632059206F64206D696E24
:101310002E3A00446973742E205920646573646505
:10132000206D696E3A0044697374616E7A61205968
:10133000206461206D696E3A005920767A64616C90
:10134000656E6F7374206F64206D696E3A0059206A
:1013500064697374616E63652066726F6D206D6978
:101360006E3A004A610054616B0053690053690092
:10137000416E6F0059657300785F6D696E3A2000A9
:1013800058595A204B616C2E2044657461696C7306
:1013900000537A637A65676F6C79206B616C2E58A5
:1013A000595A00496E666F726D2E2058595A206343
:1013B000616C2E0058595A2043616C2E206465746C
:1013C0007461676C690044657461696C792058596F
:1013D0005A206B616C2E0058595A2063616C2E2084
:1013E00064657461696C7300496368207765726431
:1013F00065206A65747A7420646965205A204B619F
:101400006C696272696572756E6720647572636873
:101410006675656872656E2E00576C61637A616DE2
:10142000206B616C69627261636A65207A2E005676
:101430006F7920612068616365722043616C696225
:10144000726163696F6E205A2061686F72612E004D
:1014500041646573736F206176766965726F20757C
:101460006E612043616C696272617A696F6E65209A
:101470005A2E004E796E692070726F766564752001
:101480007A206B616C6962726163692E0049207712
:10149000696C6C2072756E207A2063616C6962726F
:1014A0006174696F6E206E6F772E004963682077D4
:1014B00065726465206A65747A7420646965205871
:1014C000595A2D4B616C696272696572756E67203D
:1014D00064757263686675656872656E2E20457303
:1014E00020776972642063612E203132204D696E4D
:1014F0007574656E2064617565726E00576C61630A
:101500007A616D206B616C69627261636A652078D3
:10151000797A2E205A616A6D696520746F206F6B2D
:101520002E203132206D696E2E0048617265206C6C
:10153000612063616C6962726163696F6E205859E2
:101540005A2E2054617264617261203132206D69BB
:101550006E2E206170726F78696D6164616D656E69
:1015600074652E0041646573736F206176766965DA
:10157000726F20756E612043616C696272617A6975
:101580006F6E652058595A2E2050756F2064757201
:10159000617265206369726361203132206D696E0A
:1015A0002E004E796E692070726F766564752078B2
:1015B000797A206B616C6962726163692E205A616D
:1015C0006265726520746F20707269626C697A6EF0
:1015D00065203132206D696E2E00492077696C6C70
:1015E0002072756E2078797A2063616C696272610D
:1015F00074696F6E206E6F772E2049742077696C46
:101600006C2074616B6520617070726F782E203170
:1016100032206D696E732E004A65747A7420776586
:101620007264652069636820646965204475657328
:1016300065206675657220504C4120766F72686532
:10164000697A656E2E20004E6167727A6577616DEA
:10165000206479737A6520646C6120504C412E00BF
:10166000566F7920612070726563616C656E74617C
:101670007220656C206E6F7A7A6C65207061726181
:1016800020504C412061686F72612E004164657387
:10169000736F2070726572697363616C6465726FD9
:1016A000206C277567656C6C6F2070657220504CDC
:1016B000412E004E796E69207072656465687265AE
:1016C0006A6920747279736B752070726F20504C48
:1016D000412E004E6F7720492077696C6C20707224
:1016E0006568656174206E6F7A7A6C6520666F72CA
:1016F00020504C412E0048616C6C6F2C206963684F
:101700002062696E206465696E204F726967696E38
:10171000616C205072757361206933204472756367
:101720006B65722E204D6F65636874656E2053691A
:1017300065206D65696E652048696C666520647515
:101740007263682064656E2053657475702D5072E5
:101750006F7A6573733F00437A6573632C206A6503
:101760007374656D2054776F6A61206472756B6164
:10177000726B61204F726967696E616C205072757F
:1017800073612069332E20437A7920706F74727AE6
:101790006562756A65737A20706F6D6F6379207A00
:1017A00020696E7374616C61636A613F00486F6C9D
:1017B000612C20736F7920747520696D7072657368
:1017C0006F7261204F726967696E616C205072752B
:1017D00073612069332E20517569657265732071BC
:1017E0007565207465206775696520612074726174
:1017F000766573206465206C6120636F6E6669672F
:1018000075726163696F6E3F004369616F2C20736D
:101810006F6E6F206C6120747561207374616D70E0
:10182000616E7465204F726967696E616C205072D9
:101830007573612069332E20477261646972657324
:10184000746920616975746F206174747261766562
:1018500072736F20696C2070726F636573736F2091
:10186000646920636F6E6669677572617A696F6E0D
:10187000653F00446F6272792064656E2C206A7344
:10188000656D2076617365207469736B61726E613A
:10189000204F726967696E616C20507275736120A8
:1018A00069332E20436863657465206162796368DB
:1018B000205661732070726F7665646C61206B6175
:1018C0006C69627261636E696D2070726F636573BB
:1018D000656D3F0048692C204920616D20796F7546
:1018E00072204F726967696E616C20507275736106
:1018F000206933207072696E7465722E20576F757F
:101900006C6420796F75206C696B65206D6520743F
:101910006F20677569646520796F75207468726FD0
:1019200075676820746865207365747570207072BF
:101930006F636573733F0049636820776572646500
:10194000206A65747A74206572737465204C696EC0
:10195000696520647275636B656E2E2057616568DA
:1019600072656E642064657320447275636B657381
:10197000206B6F656E6E656E2053696520646965C6
:1019800020447565736520616C6C6D6165686C6978
:1019900063682073656E6B656E20696E64656D208B
:1019A0005369652064656E204B6E6F7066206472AB
:1019B0006568656E2C2062697320536965206469CF
:1019C00065206F7074696D616C6520486F6568652E
:1019D0002065727265696368656E2E205565626563
:1019E000727072756566656E2053696520646965FD
:1019F0002042696C64657220696E20756E73657231
:101A0000656D2048616E646275636820696D204B66
:101A100061706974656C204B616C69627269657292
:101A2000756E67005A61637A6E65206472756B6FBC
:101A3000776163206C696E69652E2053746F706ED8
:101A4000696F776F206F7075737A637A616A20644B
:101A500079737A652070727A656B726563616A6109
:101A6000632067757A696B2C20706F6B69206E69D3
:101A70006520757A79736B61737A206F7074796DF4
:101A8000616C6E656A207779736F6B6F7363692E13
:101A9000205370726177647A206F6272617A6B6929
:101AA0002077206E61737A796D20706F7261646E39
:101AB000696B75207720726F7A647A2E204B616C87
:101AC00069627261636A6100566F79206120636F99
:101AD0006D656E7A6172206120696D7072696D69E1
:101AE00072206C61206C696E6561207920747520AC
:101AF00062616A6172617320656C206E6F7A7A6CC4
:101B000065206772616475616C6D656E74652061D6
:101B10006C20726F74617220656C206D616E646FF1
:101B20002C20686173746120717565206C6C656729
:101B30007565732061206C6120616C747572612021
:101B40006F7074696D612E204D697261206C6173D4
:101B500020696D6167656E65732064656C206361E3
:101B6000706974756C6F2043616C6962726163693E
:101B70006F6E20656E20656C206D616E75616C2ED8
:101B80000041646573736F20696E697A6965726F6D
:101B90002061207374616D7061726520756E6120C3
:101BA0006C696E6561206520747520646F76726162
:101BB0006920616262617373617265206C27756769
:101BC000656C6C6F20706F636F2070657220766F2C
:101BD0006C74612072756F74616E646F206C61202B
:101BE0006D616E6F706F6C612073696E6F20612024
:101BF0007261676769756E6765726520756E6120D1
:101C0000616C74657A7A61206F7474696D616C655A
:101C10002E20506572206661766F7265206461695E
:101C200020756E6F207367756172646F20616C6CD4
:101C300027696D6D6167696E652064656C206E6FE4
:101C40007374726F206D616E75616C652C206361B9
:101C5000702E43616C696272617A696F6E652E00E5
:101C60005A61636E75207469736B6E6F7574206C46
:101C7000696E6B75206120567920627564657465A4
:101C800020706F737475706E6520736E697A6F76ED
:101C9000617420747279736B75206F746163656E03
:101CA000696D20746C616369746B6120646F6B751E
:101CB00064206E65646F7361686E657465206F7013
:101CC00074696D616C6E69207679736B792E205022
:101CD000726F686C65646E657465207369206F62ED
:101CE00072617A6B792076206E61736920707269F7
:101CF00072756363652076206B617069746F6C65C3
:101D0000204B616C69627261636500492077696C80
:101D10006C20737461727420746F207072696E74B9
:101D2000206C696E6520616E6420796F752077691B
:101D30006C6C206772616475616C6C79206C6F7774
:101D4000657220746865206E6F7A7A6C652062799E
:101D500020726F746174696E6720746865206B6EA1
:101D60006F622C20756E74696C20796F75207265B6
:101D7000616368206F7074696D616C206865696764
:101D800068742E20436865636B20746865207069F1
:101D900063747572657320696E206F757220686157
:101DA0006E64626F6F6B20696E206368617074652A
:101DB000722043616C6962726174696F6E2E004AB1
:101DC00065747A742077657264652069636820643D
:101DD000656E2041627374616E64207A7769736303
:101DE00068656E2044756573656E737069747A6595
:101DF00020756E6420447275636B62657474206B29
:101E0000616C696272696572656E2E004B616C6906
:101E10006272756A65206F646C65676C6F736320AE
:101E20006D6965647A79206B6F6E636F776B612083
:101E30006479737A7920612073746F6C696B69655A
:101E40006D2E00566F7920612063616C696272614A
:101E500072206C612064697374616E6369612065CE
:101E60006E747265206C612070756E74612064659B
:101E70006C206E6F7A7A6C652079206C61207375A6
:101E80007065726669636965206465206C612068AD
:101E90006561746265642E0041646573736F2074BC
:101EA000617265726F206C6F2073746163636F2061
:101EB000667261207567656C6C6F20652073757044
:101EC0006572666963652064656C2070696174740D
:101ED0006F2E004E796E69207A6B616C6962727543
:101EE0006A6920767A64616C656E6F7374206D65C3
:101EF0007A69206B6F6E63656D20747279736B798C
:101F0000206120706F76726368656D20686561740A
:101F1000626564752E004E6F7720492077696C6C7E
:101F20002063616C696272617465206469737461B5
:101F30006E6365206265747765656E2074697020D4
:101F40006F6620746865206E6F7A7A6C6520616EAA
:101F5000642068656174626564207375726661638C
:101F6000652E005A756E61656368737420667565C9
:101F7000687265206963682064656E2053656C62D1
:101F800073747465737420647572636820756D2052
:101F900064696520686165756669677374656E203C
:101FA00050726F626C656D65206265692064657250
:101FB00020417566626175207A752075656265726B
:101FC0007072756566656E2E004E616A7069657225
:101FD0007720776C61637A65206175746F746573BF
:101FE0007420772063656C75206B6F6E74726F6CF4
:101FF0006C69206E616A637A657374737A79636859
:102000002070726F626C656D6F77207A206D6F6ED5
:1020100074617A656D2E005072696D65726F2C2047
:102020006861726520656C2053656C6674657374B5
:10203000207061726120636F6D70726F62617220D7
:102040006C6F732070726F626C656D617320646574
:10205000206D6F6E74616A65206D617320636F6DB2
:10206000756E65732E00416E7A69747574746F2095
:102070006176766965726F20696C2053656C6620A5
:10208000546573742070657220636F6E74726F6C28
:102090006C61726520676C69206572726F7269206D
:1020A000646920617373656D626C616767696F2035
:1020B00070697520636F6D756E692E004E656A6478
:1020C00072697620706F6D6F63692073656C6674DA
:1020D00065737475207A6B6F6E746F6C756A6920A6
:1020E0006E656A63617374656A7369206368796297
:1020F0007920767A6E696B616A69636920707269AA
:1021000020736573746176656E69207469736B61A1
:10211000726E792E0046697273742C20492077699B
:102120006C6C2072756E207468652073656C6674C3
:1021300065737420746F20636865636B206D6F73C3
:102140007420636F6D6D6F6E20617373656D626C6B
:10215000792070726F626C656D732E004465722019
:102160006C617566656E646520417373697374652F
:102170006E74206C6F657363687420646965206198
:102180006B7475656C6C65204B616C696272696516
:102190007265726765626E6973736520756E64201F
:1021A0007769726420766F6E20416E66616E67207B
:1021B000616E20626567696E6E656E2E20466F7275
:1021C000747365747A656E3F00576C61637A656EEF
:1021D00069652057697A617264207573756E6965E7
:1021E000206F6265636E652064616E65206B616C53
:1021F0006962726163796A6E652069207A61637AC7
:102200006E6965206F64206E6F77612E204B6F6E54
:1022100074796E756F7761633F00456A65637574A5
:10222000617220656C2057697A61726420626F72F6
:1022300072617261206C6F732076616C6F7265736E
:102240002064652063616C6962726163696F6E20EE
:1022500061637475616C6573207920636F6D656E61
:102260007A617261206465206E7565766F2E2043F9
:102270006F6E74696E7561723F005365206176768A
:102280006920696C2057697A617264207065726494
:1022900065726169206C612063616C696272617A48
:1022A000696F6E65207072656573697374656E74AD
:1022B00065206520646F76726169207269636F6D55
:1022C000696E63696172652064616C6C27696E690F
:1022D0007A696F2E20436F6E74696E756172653F07
:1022E000005370757374656E692057697A61726402
:1022F000612076796D617A6520756C6F7A656E659F
:10230000207679736C65646B7920767365636820D9
:102310006B616C69627261636920612073707573AF
:102320007469206B616C69627261636E692070729E
:102330006F636573206F64207A616361746B752EBF
:1023400020506F6B7261636F7661743F0052756EDF
:102350006E696E672057697A6172642077696C6C68
:102360002064656C6574652063757272656E742097
:1023700063616C6962726174696F6E2072657375F6
:102380006C747320616E6420737461727420667261
:102390006F6D2074686520626567696E6E696E672F
:1023A0002E20436F6E74696E75653F004D6F6563D7
:1023B0006874656E205369652064656E206C657471
:1023C0007A74656E205363687269747420776965E6
:1023D000646572686F6C656E20756D2064656E2033
:1023E00041627374616E64207A7769736368656EA5
:1023F00020447565736520756E6420447275636B47
:1024000062657474206E65752065696E7A75737483
:10241000656C6C656E3F0043686365737A20706F0E
:1024200077746F727A7963206F737461746E692048
:102430006B726F6B20692070727A65737461776953
:1024400063206F646C65676C6F7363206D6965648E
:102450007A79206479737A6120612073746F6C6972
:102460006B69656D3F0051756965726573207265B2
:10247000706574697220656C20756C74696D6F206D
:102480007061736F2070617261207265616A75732B
:10249000746172206C612064697374616E63696138
:1024A000206E6F7A7A6C652D686561746265643F31
:1024B000004465736964657269207269706574654A
:1024C0007265206C27756C74696D6F207061737311
:1024D000616767696F20706572206D69676C696FED
:1024E00072617265206C612064697374616E7A61D7
:1024F00020667261207567656C6C6F20652070695D
:102500006174746F3F00436863657465206F706128
:102510006B6F76617420706F736C65646E69206B8D
:10252000726F6B206120706F7A6D656E69742076B2
:102530007A64616C656E6F7374206D657A6920745E
:102540007279736B6F752061206865617462656470
:102550003F00446F20796F752077616E7420746F2F
:1025600020726570656174206C617374207374658A
:102570007020746F20726561646A75737420646979
:102580007374616E6365206265747765656E206E35
:102590006F7A7A6C6520616E64206865617462652B
:1025A000643F00536965206B6F656E6E656E2069D0
:1025B0006D6D65722064656E204173697374656E1C
:1025C00074656E20696D204D656E75206E65752091
:1025D000617566727566656E3A204B616C696272F0
:1025E000696572756E67202D3E204173736973743F
:1025F000616E74005A6177737A65206D6F7A6573C6
:102600007A2070727A7977726F6369632057697A7A
:102610006172642070727A657A204B616C696272B3
:1026200061636A61202D3E2057697A6172642E00D1
:102630005369656D7072652070756564657320619E
:1026400063636564657220616C206173697374658E
:102650006E74652064657364652043616C696272A1
:102660006163696F6E202D3E2057697A6172640044
:102670004520706F73736962696C652070726F7347
:10268000656775697265206C61206775696465208E
:1026900057697A61726420696E207175616C736923
:1026A000617369206D6F6D656E746F2061747472F3
:1026B00061766572736F2043616C696272617A69D9
:1026C0006F6E65202D3E2057697A6172642E005727
:1026D000697A61726461206D757A657465206B64D6
:1026E000796B6F6C6976207A6E6F76752073707572
:1026F00073746974207A206D656E752043616C690E
:1027000062726174696F6E202D3E2057697A617222
:102710006400596F752063616E20616C7761797315
:1027200020726573756D65207468652057697A61DC
:1027300072642066726F6D2043616C6962726174AD
:10274000696F6E202D3E2057697A6172642E0049B0
:102750007374206573207769726B6C6963682050AD
:102760004C412046696C616D656E743F00437A7917
:1027700020746F2066696C616D656E7420504C41E9
:102780003F00457320656C2066696C616D656E74F1
:102790006F20504C413F00452071756573746F2068
:1027A000756E2066696C616D656E746F206469205A
:1027B000504C413F004A6520746F20504C412066C8
:1027C000696C616D656E743F0049732069742050B7
:1027D0004C412066696C616D656E743F004675659D
:1027E0006872656E20536965206269747465205053
:1027F0004C412046696C616D656E7420696E206481
:10280000656E20457874727564657220756E6420FB
:10281000626573746165746967656E2053696520CC
:1028200064656E204B6E6F706620756D2065732039
:102830007A75206C6164656E2E0050726F737A65D4
:1028400020756D696573632066696C616D656E7472
:1028500020504C41207720656B73747275646572EB
:102860007A652069206E616369736E696A2070728F
:102870007A796369736B206279207A616C61646F25
:102880007761632E00496E73657274612C20706FDE
:1028900072206661766F722C2066696C616D656E60
:1028A000746F20504C4120656E20656C20657874F3
:1028B0007275736F722E204465737075657320682E
:1028C000617A20636C696320706172612063617258
:1028D0006761726C6F2E00506572206661766F7250
:1028E0006520696E7365726973636920696C20661F
:1028F000696C616D656E746F20646920504C412075
:102900006E656C6C276573747275736F72652C20BD
:10291000706F69207072656D69206C61206D616EE9
:102920006F706F6C612070657220636172696361A2
:1029300072652E0050726F73696D20766C6F7A74B9
:102940006520504C412066696C616D656E74206431
:102950006F206578747275646572752C20706F20B5
:10296000746520737469736B6E65746520746C6133
:102970006369746B6F2070726F207A61766564652D
:102980006E692066696C616D656E74752E00506CA1
:102990006561736520696E7365727420504C4120C7
:1029A00066696C616D656E7420746F207468652053
:1029B00065787472756465722C207468656E207019
:1029C00072657373206B6E6F6220746F206C6F6121
:1029D000642069742E004269747465206C616465BA
:1029E0006E2053696520504C412D46696C616D65C0
:1029F0006E7420756E642066616872656E2053691E
:102A000065206D69742064656D204173736973740A
:102A1000656E74656E20666F72742C20696E6465D5
:102A20006D205369652064656E20447275636B6523
:102A300072206E6575207374617274656E2E00501D
:102A4000726F737A65207A616C6164756A20666959
:102A50006C616D656E7420504C4120692070727AF3
:102A60007977726F632057697A6172642070727A25
:102A7000657A2072657374617274206472756B611B
:102A8000726B692E0043617267612066696C616DCB
:102A9000656E746F20504C412C20706F72206661FF
:102AA000766F722C2079207265696E696369612086
:102AB0006C6120696D707265736F726120706172F4
:102AC0006120636F6E74696E75617220636F6E2032
:102AD000656C2057697A6172640050657220666186
:102AE000766F7265206361726963612066696C61EB
:102AF0006D656E746F20646920504C4120652072B2
:102B0000697072656E646920696C2057697A6172B8
:102B10006420646F706F20617665722072696176DF
:102B2000766961746F206C61207374616D70616E81
:102B300074652E0050726F73696D207A61766564DA
:102B4000746520504C412066696C616D656E74201F
:102B50006120706F207465206F626E6F76746520DF
:102B600057697A6172646120737469736B6E7574EE
:102B7000696D20726573657420746C616369746B30
:102B8000612E00506C65617365206C6F616420502C
:102B90004C412066696C616D656E7420616E6420C5
:102BA0007468656E20726573756D652057697A610A
:102BB0007264206279207265626F6F74696E67203B
:102BC000746865207072696E7465722E00566F723B
:102BD0006865697A656E2064657220447565736501
:102BE0002E2042697474652077617274656E2E00C0
:102BF0004E6167727A6577616E6965206479737A70
:102C0000792E2050726F737A6520637A656B6163E9
:102C10002E0050726563616C656E74616E646F2026
:102C20006E6F7A7A6C652E204573706572612070C4
:102C30006F72206661766F722E0053746F2070720F
:102C40006572697363616C64616E646F206C277573
:102C500067656C6C6F2E20506572206661766F72AE
:102C60006520617474656E64692E005072656465D8
:102C700068726976616D20747279736B752E20505D
:102C8000726F73696D2063656B656A74652E0050A1
:102C9000726568656174696E67206E6F7A7A6C65BB
:102CA0002E20506C6561736520776169742E004930
:102CB0007374206461732046696C616D656E742065
:102CC00067656C6164656E3F0046696C616D656E39
:102CD00074206A657374207A616C61646F77616EC9
:102CE000793F004573746120656C2066696C616D85
:102CF000656E746F206361726761646F3F00496C39
:102D00002066696C616D656E746F206520737461F7
:102D1000746F20636172696361746F3F004A65205C
:102D200066696C616D656E74207A61766564656E46
:102D30003F0049732066696C616D656E74206C6F2D
:102D4000616465643F00416C6C65732077757264E3
:102D50006520676574616E2E205669656C2053701E
:102D6000617373206265696D20447275636B656E73
:102D70002100476F746F77652E205564616E65671B
:102D80006F206472756B7521005465726D696E6198
:102D9000646F212046656C697A20696D7072657375
:102DA000696F6E210042656E20666174746F2E201B
:102DB00042756F6E61207374616D7061210056738E
:102DC00065206A6520686F746F766F2E00416C6CA9
:102DD00020697320646F6E652E20486170707920C1
:102DE0007072696E74696E6721004269747465203F
:102DF0007265696E6967656E2053696520646173E9
:102E0000204865697A6265747420756E6420647206
:102E10007565636B656E205369652064616E6E2015
:102E200064656E204B6E6F70662E0050726F737A01
:102E300065206F637A7973632073746F6C696B209C
:102E400069206E616369736E696A2067757A696B60
:102E50002E004C696D706961206C6120737570651E
:102E6000726669636965206465206C6120686561CC
:102E7000746265642C20706F72206661766F722CAC
:102E800020792068617A20636C6963005065722044
:102E90006661766F72652070756C6973636920690D
:102EA0006C2070696174746F2C20706F692070726F
:102EB000656D69206C61206D616E6F706F6C612E45
:102EC0000050726F73696D206F6369737465746508
:102ED0002068656174626564206120737469736B36
:102EE0006E65746520746C616369746B6F2E00503D
:102EF0006C6561736520636C65616E2068656174E3
:102F000062656420616E64207468656E207072650D
:102F1000737320746865206B6E6F622E0042697453
:102F200074652075656265727072756566656E2080
:102F300053696520756E7365722048616E646275B1
:102F4000636820756E64206265686562656E2053F3
:102F50006965206461732050726F626C656D2E200C
:102F600046616872656E205369652064616E6E20EB
:102F70006D69742064656D20417373697374656E47
:102F800074656E20666F72742C20696E64656D20A6
:102F90005369652064656E20447275636B657220A9
:102FA0006E6575207374617274656E2E0050726F59
:102FB000737A65207370726177647A206E61737AB8
:102FC00020706F7261646E696B2069206E6170722F
:102FD00061772070726F626C656D2E20506F746522
:102FE0006D2070727A7977726F632057697A617297
:102FF000642072657374617274756A6163206472AF
:10300000756B61726B652E004C656520656C206D7B
:10301000616E75616C20792072657375656C76657B
:1030200020656C2070726F626C656D612E20446546
:1030300073707565732C207265696E6963696120B0
:103040006C6120696D707265736F726120792063A5
:103050006F6E74696E756120636F6E20656C2057AA
:10306000697A61726400506572206661766F72657C
:1030700020636F6E73756C746120696C206E6F7362
:1030800074726F206D616E75616C65207065722061
:103090007269736F6C7665726520696C2070726FEF
:1030A000626C656D612E20506F6920726970726567
:1030B0006E646920696C2057697A61726420646F5C
:1030C000706F2061766572207269617676696174CD
:1030D0006F206C61207374616D70616E74652E0079
:1030E00050726F73696D206E61686C65646E657493
:1030F0006520646F206D616E75616C752061206F55
:103100007072617674652070726F626C656D2E20CE
:10311000506F207465206F626E6F767465205769FA
:103120007A61726461207265626F6F746F76616E2E
:10313000696D207469736B61726E792E00506C65D5
:1031400061736520636865636B206F7572206861C9
:103150006E64626F6F6B20616E64206669782074A4
:1031600068652070726F626C656D2E205468656EA4
:1031700020726573756D65207468652057697A6182
:103180007264206279207265626F6F74696E672065
:10319000746865207072696E7465722E0057697A62
:1031A00061726400205761746368646F67205265C0
:1031B00073657400496E666F726D6174696F6E003D
:1031C000496E666F726D61636A65004D6F6E6974FA
:1031D0006F72697A61720053636865726D617461C0
:1031E00020696E666F00496E666F726D616365007F
:1031F000496E666F2073637265656E005761727405
:10320000656E206175662041626B7565686C756ED0
:103210006720766F6E2048656174657220756E64F4
:1032200020426574742E004F637A656B6977616E16
:103230006965206E6120777963686C6F647A656E6A
:103240006965206479737A79206920706F646B6C8A
:1032500061646B692E004573706572616E646F20E6
:10326000656E667269616D69656E746F2064652054
:10327000686561746265642079206578747275731D
:103280006F722E00496E20617474657361206465ED
:103290006C207261666672656464616D656E746FE0
:1032A0002064656C6C612074657374696E6120655F
:1032B0002064656C2070696174746F0043656B6194
:1032C0006E69206E61207A63686C61646E757469E2
:1032D00020747279736B79206120706F646C6F7ADF
:1032E0006B792E0057616974696E6720666F722072
:1032F0006E6F7A7A6C6520616E642062656420630B
:103300006F6F6C696E670045727374652D536368E7
:1033100069636874204B616C004B616C2E20312E08
:1033200020776172737477790043616C2E2070721C
:10333000696D657261206361702E0043616C2E209F
:103340007072696D6F206C617965722E004B616CD3
:103350002E207072766E69207672737476790046CC
:1033600069727374206C617965722063616C2E00E0
:1033700057617274652061756620757365722E2EB3
:103380002E004573706572616E646F206F726465A4
:103390006E657300417474656E64656E646F20754C
:1033A00074656E7465005761697420666F7220756C
:1033B0007365722E2E2E004265696D20447275630E
:1033C0006B2062656E75747A746500557A797465E0
:1033D0002070727A79206472756B75005573616420
:1033E0006F20656E20696D70726573696F6E005530
:1033F00073617469206E656C6C61207374616D70AB
:103400006100506F757A69746520626568656D202A
:103410007469736B75005573656420647572696EA9
:1034200067207072696E740046696C616D656E74B8
:1034300020656E746C6164656E0057796A61632003
:1034400066696C616D656E7400536F6C7461722097
:1034500066696C616D656E746F0053636172696358
:10346000612066696C616D656E746F0056796A6D76
:103470006F75742066696C616D656E7400556E6C55
:103480006F61642066696C616D656E740046696C7D
:10349000616D656E742061757377657266656E0027
:1034A0005779737577616D2066696C616D656E74AF
:1034B00000536F6C74616E646F2066696C616D653A
:1034C0006E746F0052696C6173632E2066696C6163
:1034D0006D656E746F005679736F7576616D2066D9
:1034E000696C616D656E7400556E6C6F6164696EB8
:1034F000672066696C616D656E7400556E6B6E6FEA
:10350000776E20636F6D6D616E643A2022004665B0
:10351000696E65696E7374656C6C756E67004E617B
:103520007374726F696300416A75737461720052DB
:1035300065676F6C61004C616469740054756E65F9
:10354000005344204B61727465205B466C61736864
:103550004169725D006B617274612053445B466C1B
:1035600073684169725D0053442063617264205B3B
:10357000466C73684169725D0053442063617264F4
:10358000205B466C73684169725D0053442063613F
:103590007264205B466C73684169725D005344201D
:1035A00063617264205B666C73684169725D00538D
:1035B00044204B61727465205B6E6F726D616C5D4F
:1035C000006B61727461205344205B6E6F726D6199
:1035D0006C5D0053442063617264205B6E6F726D9A
:1035E000616C5D0053442063617264205B6E6F7296
:1035F0006D616C5D0053442063617264205B6E6F8B
:10360000726D616C5D005344206361726420205BC5
:103610006E6F726D616C5D0054656D702E204B6134
:103620006C2E205B4F4E5D00436965706C2E206BE5
:10363000616C2E205B4F4E5D0043616C2E207465E3
:103640006D702E205B4F4E5D0043616C2E207465C3
:103650006D702E205B4F4E5D005465706C2E206B9C
:10366000616C2E205B4F4E5D0054656D702E2063A3
:10367000616C2E205B4F4E5D0054656D702E204BAB
:10368000616C2E205B4F46465D00436965706C2E71
:10369000206B616C2E205B4F46465D0043616C2EB3
:1036A0002074656D702E205B4F46465D0043616C53
:1036B0002E2074656D702E205B4F46465D0054656C
:1036C000706C2E206B616C2E205B4F46465D005463
:1036D000656D702E2063616C2E205B4F46465D0049
:1036E00054656D702E204B616C69627269657275EC
:1036F0006E67206665727469672E204B6C69636B18
:10370000656E20756D20776569746572207A752005
:10371000676568656E2E00436965706C6E61206B2D
:10372000616C69627261636A61207A616B6F6E635A
:103730007A6F6E612E204B6F6E74796E75756A208C
:1037400070727A796369736B69656D0043616C6946
:10375000627261636F6E2074656D706572617475FD
:103760007261207465726D696E6164612E204861BA
:103770007A20636C6963207061726120636F6E747C
:10378000696E7561722E0054617261747572612088
:1037900074656D7065726174757261207465726DA7
:1037A000696E6174612E204661726520636C696385
:1037B0006B2070657220636F6E74696E75617265DF
:1037C0002E005465706C6F746E69206B616C696259
:1037D0007261636520646F6B6F6E63656E612E202E
:1037E000506F6B726163756A746520737469736B73
:1037F000656D20746C616369746B612E0054656D36
:1038000070657261747572652063616C6962726162
:1038100074696F6E2069732066696E697368656488
:103820002E20436C69636B20746F20636F6E746924
:103830006E75652E0054656D70204B616C69622E4B
:1038400020202020202020202000436965706C2E3D
:10385000206B616C2E20202020202020202000437F
:10386000616C2E2074656D702E2020202020202079
:103870002020200043616C2E2074656D702E202066
:103880002020202020202020005465706C2E206BEA
:10389000616C2E2020202020202020202000546534
:1038A0006D702E2063616C2E20202020202020208F
:1038B00020200054656D70657261747572005465E6
:1038C0006D70657261747572610054656D706572BA
:1038D00061747572610054656D70657261747572A2
:1038E00061005465706C6F74610054656D70657231
:1038F000617475726500506F6D6F6300536F706F08
:1039000072746500506F64706F72610053757070EF
:103910006F727400447275636B20616262726563DA
:1039200068656E005A6174727A796D6163206472A1
:10393000756B00446574656E657220696D707265A3
:1039400073696F6E00417272657374612073746184
:103950006D7061005A617374617669742074697363
:103960006B0053746F70207072696E74004745531A
:10397000544F5050542E2000504152414441004178
:10398000525245535441544F2E0053544F505045BA
:10399000442E2000537465707261746520746F6FDB
:1039A00020686967683A2000546F74616C65204430
:1039B0007275636B7A6569743A00437A6173206348
:1039C000616C6B6F77697479203A005469656D702A
:1039D0006F20746F74616C203A0054656D706F20B5
:1039E0007374616D706120746F743A0043656C6B21
:1039F0006F767920636173203A00546F74616C2094
:103A00007072696E742074696D65203A0047657341
:103A1000616D7466696C616D656E743A0046696CBF
:103A2000616D656E74206C61637A6E6965203A0021
:103A300046696C616D656E746F20746F74616C3A69
:103A40000046696C616D656E746F20746F743A0026
:103A500046696C616D656E742063656C6B656D2085
:103A60003A00546F74616C2066696C616D656E74A8
:103A7000203A00447275636B7A6569743A202000BD
:103A8000437A6173206472756B75203A202000546C
:103A900069656D706F20646520696D702E3A005401
:103AA000656D706F206469207374616D70613A0098
:103AB000436173207469736B75203A202000507243
:103AC000696E742074696D653A20200046696C61E6
:103AD0006D656E747665726272617563683A0046F0
:103AE000696C616D656E74203A20200046696C61D6
:103AF0006D656E746F20757361646F3A20200046A7
:103B0000696C616D656E746F20757361746F3A00D6
:103B100046696C616D656E74203A20200046696CC0
:103B2000616D656E7420757365643A20200053746E
:103B30006174697374696B656E2000537461747984
:103B40007374796B612020004573746164697374C8
:103B500069636173202000537461746973746963CD
:103B600068650053746174697374696B6120200027
:103B700053746174697374696373202000457272B1
:103B80006F72202D20737461746963206D656D6F91
:103B9000727920686173206265656E206F76657248
:103BA0007772697474656E00476573636877696ED0
:103BB0006469676B65697400507265646B6F7363E9
:103BC0000056656C6F63696461640056656C6F6371
:103BD00069746100527963686C6F73740053706527
:103BE000656400536F756E64202020205B73696CE0
:103BF000656E745D00536F756E6420202020202058
:103C00005B6F6E63655D00536F756E6420202020CE
:103C100020205B6C6F75645D00536F727469657210
:103C2000656E3A205B5A6569745D00536F727475F6
:103C30006A3A205B437A61735D004F7264656E611E
:103C4000723A205B5469656D706F5D004F726469F4
:103C50006E653A205B54656D706F5D0054726964E7
:103C6000656E69205B4361735D00536F7274202041
:103C700020202020205B74696D655D00536F727495
:103C8000696572656E3A5B4B65696E655D00536F81
:103C90007274756A3A205B5A6164656E5D004F729A
:103CA00064656E61723A5B4E696E67756E6F5D003A
:103CB0004F7264696E653A205B4E657373756E6F03
:103CC0005D0054726964656E69205B5A61646E655B
:103CD0005D00536F7274202020202020205B6E6FC7
:103CE0006E655D00536F7274696572656E3A5B4113
:103CF0006C7068615D00536F7274756A3A205B4145
:103D00006C66616265745D004F7264656E61723AE3
:103D10005B416C66616265745D004F7264696E65DB
:103D20003A5B416C66616265746F5D0054726964F0
:103D3000656E69205B416265636564615D00536F18
:103D400072742020205B616C7068616265745D0034
:103D50004461746569656E20736F7274696572651C
:103D60006E00536F72746F77616E696520706C6955
:103D70006B6F77004F7264656E616E646F20617265
:103D8000636869766F73004F7264696E652064655D
:103D9000692066696C650054726964656E69207398
:103DA0006F75626F727500536F7274696E6720660B
:103DB000696C65730020536F667477617265205279
:103DC00065736574004C656963687465722053633C
:103DD00068722E3A004C656B6B6965207363696588
:103DE0006369653A00496E636C696E2E206C696781
:103DF0006572613A00496E636C2E206C6567676579
:103E000072613A004C65686B65207A6B6F73656E02
:103E1000693A00536C6967687420736B65773A0080
:103E20004D6F646520202020205B6C656973655DA3
:103E300000547279622020202020205B636963682F
:103E4000795D004D6F646F2020205B73696C656E37
:103E500063696F5D004D6F646F205B73696C656EA5
:103E60007A696F736F5D004D6F64202020202020E1
:103E7000205B74696368795D004D6F646520202064
:103E800020205B73696C656E745D004D6F64652006
:103E90005B486F6865204C656973745D0054727986
:103EA000625B7720777964616A6E6F73635D004D42
:103EB0006F646F205B72656E642E706C656E6F5DF3
:103EC000004D6F64652020202020205B666F727497
:103ED000655D004D6F6420205B7679732E207679C6
:103EE0006B6F6E5D004D6F6465205B68696768206D
:103EF000706F7765725D00456E64736368616C74A2
:103F0000657220537461742E00506F6B617A206B60
:103F100072616E636F776B6900456E73656E6120C9
:103F2000746F70652066696E616C00537461746FA4
:103F30002066696E65636F727361005374617620E9
:103F40006B6F6E632E207370696E2E0053686F77EF
:103F500020656E642073746F7073005363687765B7
:103F600072657220536368722E3A004F73747265E3
:103F700020736369656369653A00496E636C696EB5
:103F80002E207365766572613A00496E632E207249
:103F9000696C6576616E74653A0054657A6B65206C
:103FA0007A6B6F73656E693A00536576657265204A
:103FB000736B65773A0054656D702E2065696E737A
:103FC00065747A656E0055737461776963207465F2
:103FD0006D70657261747572650045737461626CB1
:103FE000656365722074656D702E3A00496D706F5F
:103FF0007374612074656D706572617475726100AF
:104000004E61737461767465207465706C6F74753D
:104010003A005365742074656D70657261747572D1
:10402000653A0045696E7374656C6C756E67656E94
:1040300000557374617769656E696100436F6E66E0
:10404000696775726163696F6E00496D706F737433
:10405000617A696F6E69004E6173746176656E692D
:104060000053657474696E6773005665726472619B
:104070006874756E676665686C657200426C616431
:1040800020706F6C61637A656E6961004572726F52
:104090007220646520636F6E6578696F6E0045728B
:1040A000726F7265206361626C616767696F00435C
:1040B00068796261207A61706F6A656E690057691C
:1040C00072696E67206572726F720053656C6273FD
:1040D00074746573742073746172742000496E691E
:1040E00063696F2053656C667465737400417676FE
:1040F0006961206175746F746573740053656C66D3
:104100002074657374207374617274202000426996
:10411000747465207072756566653A00536B6F6ED6
:1041200074726F6C756A203A00436F6E74726F6CB4
:1041300061203A00566572696669636172653A008A
:104140005A6B6F6E74726F6C756A7465203A0050AA
:104150006C6561736520636865636B203A00536525
:104160006C62737474657374204F4B004175746F87
:1041700074657374204F4B0053656C6620746573CF
:1041800074204F4B004E6963687420616E676573DD
:1041900063686C6F7373656E004E696520706F6441
:1041A0006C61637A6F6E6F202020004E6F20686113
:1041B0007920636F6E6578696F6E2020004E6F6E98
:1041C00020636F6E6E6573736F004E657A61706FFA
:1041D0006A656E6F20202020004E6F7420636F6E22
:1041E0006E65637465640053696C6E696B004D6F36
:1041F000746F7265004D6F746F7200486F74656EF6
:10420000640052697363616C642E2F5465726D692A
:1042100073742E004865617465722F546865726D01
:104220006973746F72004472656874004B726563E1
:1042300069207369650056656E74696C61646F729C
:104240002067697261004769726100546F63692079
:104250007365005370696E6E696E670044726568BD
:1042600074206E69636874004E6965206B726563C3
:1042700069207369650056656E74696C61646F725C
:10428000206E6F2067697261004E6F6E2073692027
:1042900067697261004E65746F6369207365004ED3
:1042A0006F74207370696E6E696E67004C75656619
:1042B0007465727465737400546573742077656EE9
:1042C00074796C61746F72610054657374207665E3
:1042D0006E74696C61646F7265730050726F7661A1
:1042E0002064656C2076656E74696C61746F720011
:1042F000546573742076656E74696C61746F727541
:104300000046616E20746573740053656C6273744B
:1043100074657374206D6973736C756E672E0053CA
:10432000656C6674657374206E69657564616E7919
:104330000046616C6C6F2053656C66746573740025
:104340004175746F746573742066616C6C69746F09
:104350000053656C66746573742073656C68616C7A
:1043600020200053656C6674657374206661696C07
:1043700065642020004C696E6B6572204C75656623
:104380007465723F004C6577792077656E74206E96
:1043900061206479737A653F0056656E742E2069DA
:1043A0007A7175696572646F3F0056656E7420534B
:1043B000582073756C6C277567656C6C6F3F004C8B
:1043C0006576792076656E74206E612074727973DB
:1043D00063653F004C65667420686F74656E642089
:1043E00066616E3F0053656C627465737420466548
:1043F000686C657221004175746F74657374206513
:1044000072726F7221004175746F74657374206EDF
:104410006567617469766F0053656C667465737463
:10442000206572726F72202100456E6465206E698E
:1044300063687420676574726F662E00546F7065D0
:10444000206E6F20616C63616E7A61646F004669F3
:104450006E65632E2066756F726920706F722E0014
:10446000456E6473746F70206E6F74206869740099
:10447000456E64736368616C74657200546F706537
:10448000732066696E616C65730046696E65636F63
:104490007273612028322900456E6473746F7073E3
:1044A00000546F70652066696E616C0046696E65C8
:1044B000636F72736100456E6473746F7000566F42
:1044C000726465726572204C7565667465723F0032
:1044D00050727A65646E692077656E742E206472FE
:1044E000756B753F0056656E742E2066726F6E7424
:1044F000616C3F0056656E74206469207374616D51
:10450000706120616E742E3F00507265646E692088
:104510007469736B6F76792076656E743F004672AE
:104520006F6E74207072696E742066616E3F005009
:104530007275656665205A20416368736520202086
:1045400020004B6F6E74726F6C61205A2061786925
:1045500073202000436F6E74726F6C20746F7065EF
:10456000205A0056657269666963612061737365DC
:10457000205A004B6F6E74726F6C61205A20617804
:104580006973202000436865636B696E67205A2059
:104590006178697320200050727565666520592026
:1045A000416368736520202020004B6F6E74726F2A
:1045B0006C6120592061786973202000436F6E740C
:1045C000726F6C20746F7065205900566572696651
:1045D00069636120617373652059004B6F6E74725B
:1045E0006F6C6120592061786973202000436865F1
:1045F000636B696E672059206178697320200050D1
:1046000072756566652058204163687365202020B7
:1046100020004B6F6E74726F6C6120582061786956
:1046200073202000436F6E74726F6C20746F70651E
:10463000205800566572696669636120617373650D
:104640002058004B6F6E74726F6C61205820617837
:104650006973202000436865636B696E672058208A
:104660006178697320200050727565666520447515
:10467000657365004B6F6E74726F6C6120686F7448
:10468000656E64202000436F6E74726F6C20686FDB
:1046900074656E6420005665726966696361207591
:1046A00067656C6C6F004B6F6E74726F6C61206825
:1046B0006F74656E64202000436865636B696E6784
:1046C00020686F74656E64202000507275656665A1
:1046D00020456E64736368616C7465722020004BC2
:1046E0006F6E74726F6C6120656E6473746F70733B
:1046F00000436F6E74726F6C20746F706573005638
:10470000657269666963612066696E65636F72735D
:1047100061004B6F6E74726F6C6120656E647374B0
:104720006F707300436865636B696E6720656E64C4
:1047300073746F707300507275656665204265749E
:10474000742020202020202020004B6F6E74726F78
:104750006C6120626564202020202000436F6E740D
:10476000726F6C2068656174626564005665726979
:1047700066696361206C6574746F004B6F6E747250
:104780006F6C6120626564202020202000436865F2
:10479000636B696E672062656420202020200041E1
:1047A0006C6C6573207269636874696720202020CF
:1047B0000057737A7973746B6F204F4B2020202041
:1047C000202000546F646F206269656E004E65732F
:1047D00073756E206572726F726500567365204F37
:1047E0004B202020202020202020202000416C6C05
:1047F00020636F72726563742020202020200042A5
:10480000657474202F204865617465720048656185
:1048100074626564004C6574746F2F5269736361D0
:104820006C642E00426564202F20486561746572B7
:104830000053656C627374746573742020202020AB
:1048400020200053656C6674657374004175746F45
:10485000746573740053656C6674657374202020EE
:104860002020202020200057726974696E67207410
:104870006F2066696C653A2000766F6C756D652EE9
:10488000696E6974206661696C6564002053697A99
:10489000653A2000534420656E746665726E74201C
:1048A000004B617274612077796A657461005461AC
:1048B000726A657461207265746972616461005323
:1048C000442072696D6F737361004B617274612073
:1048D00076796A6D75746100436172642072656DEA
:1048E0006F766564005344207072696E74696E67F8
:1048F000206279746520006F70656E206661696C56
:1049000065642C2046696C653A20006F70656E52B4
:104910006F6F74206661696C65640053442065693B
:104920006E67657365747A74004B61727461207789
:104930006C6F7A6F6E61005461726A657461206990
:104940006E7365727461646100534420696E7365AF
:1049500072697461004B6172746120766C6F7A6564
:104960006E61004361726420696E73657274656480
:1049700000534420696E6974206661696C00466961
:104980006C652073656C65637465640046696C656D
:10499000206F70656E65643A20006572726F7220D8
:1049A00077726974696E6720746F2066696C650040
:1049B00053442063617264206F6B0043616E6E6FBD
:1049C0007420656E746572207375626469723A2032
:1049D000005265636874733A0050726177793A00E7
:1049E000446572656368613A004465737472613A44
:1049F0000050726176793A0052696768743A0044EF
:104A00007275636B20776569746572676568656E3A
:104A100000577A6E617769616E6965206472756BA3
:104A200075005265616E7564617220696D707265A2
:104A300073696F6E005374616D706120696E2072CE
:104A4000697072657361004F626E6F766F76616E2A
:104A500069207469736B7500526573756D696E6753
:104A6000207072696E7400447275636B20666F7299
:104A70007467657365747A7400577A6E6F776965C9
:104A80006E6965206472756B7500526573756D692A
:104A9000656E646F20696D70726573696F6E005228
:104AA000697072656E6469207374616D7061004F26
:104AB000626E6F76656E69207469736B75005265FE
:104AC00073756D696E67207072696E7400466F72DF
:104AD000747365747A656E004B6F6E74796E756F62
:104AE000776163005265616E7564617220696D70F3
:104AF0007265732E0052697072656E6469207374FA
:104B0000616D706100506F6B7261636F76617400EC
:104B1000526573756D65207072696E7400526573AD
:104B2000656E643A2000686F77746F2E70727573CB
:104B30006133642E637A00686F77746F2E707275BC
:104B4000736133642E637A00686F77746F2E7072AE
:104B500075736133642E636F6D00666F72756D2EB1
:104B6000707275736133642E637A00666F72756D4F
:104B70002E707275736133642E637A00666F72757E
:104B80006D2E707275736133642E636F6D00707279
:104B900075736133642E637A007072757361336468
:104BA0002E637A00707275736133642E636F6D00CB
:104BB000447275636B20706175736965727400442B
:104BC00072756B207A6174727A796D616E790049C1
:104BD0006D70726573696F6E20656E20706175739C
:104BE00061005374616D706120696E20706175732E
:104BF00061005469736B20706F7A617374617665BC
:104C00006E005072696E7420706175736564004443
:104C10007275636B206162676562726F6368656E4F
:104C2000004472756B2070727A657277616E7900DC
:104C3000496D70726573696F6E2063616E63656C38
:104C4000616461005374616D70612061626F7274A0
:104C5000697461005469736B207072657275736555
:104C60006E005072696E742061626F7274656400C8
:104C7000756E64204B6E6F70662064727565636B31
:104C8000656E004E616369736E696A2070727A792D
:104C90006369736B0048617A20636C696300652007
:104CA000636C696363617265206D616E6F706F6CB8
:104CB00061006120737469736B6E65746520746C38
:104CC000616369746B6F00616E64207072657373E9
:104CD00020746865206B6E6F620044756573652093
:104CE000566F72776165726D656E004E6167727A9C
:104CF000656A206479737A65210050726563616C1E
:104D0000656E746172206578747275736F7200508D
:104D100072657269732E207567656C6C6F21005027
:104D2000726564656872656A746520747279736B04
:104D30007521005072656865617420746865206E25
:104D40006F7A7A6C652100566F72776165726D6556
:104D50006E0047727A616E69650050726563616CBE
:104D6000656E7461720050726572697363616C6420
:104D7000610050726564656872657600507265689E
:104D800065617400506F7765725570004269747484
:104D9000652077617274656E0050726F737A65205A
:104DA000637A656B616300506F72204661766F7243
:104DB000204573706572617200417370657474612F
:104DC0000050726F73696D2063656B656A7465006E
:104DD000506C656173652077616974004269747411
:104DE00065206C6164656E20536965207A75657213
:104DF000737420504C412046696C616D656E742E51
:104E00000050726F737A652C206E616A70696572EA
:104E100077207A616C6164756A2066696C616D6582
:104E20006E7420504C412E00436172676120656CA6
:104E30002066696C616D656E746F20504C41207006
:104E400072696D65726F20706F72206661766F7225
:104E50002E00506572206661766F726520707269EF
:104E60006D612063617269636172652066696C615E
:104E70006D656E746F20646920504C412E004E6544
:104E80006A6472697665207A61766564746520501B
:104E90004C412066696C616D656E742070726F7331
:104EA000696D2E00506C65617365206C6F616420C4
:104EB000504C412066696C616D656E742066697244
:104EC00073742E0049737420504C412046696C6104
:104ED0006D656E742067656C6164656E3F00466940
:104EE000616C6D656E7420504C41206A657374204E
:104EF0007A616C61646F77616E793F0045737461AC
:104F000020656C2066696C616D656E746F20504C15
:104F100041206361726761646F3F00496C20504CAF
:104F200041206520737461746F20636172696361ED
:104F3000746F3F004A6520504C412066696C616D7A
:104F4000656E74207A61766564656E3F00497320F2
:104F5000504C412066696C616D656E74206C6F61A8
:104F60006465643F002020506C616E6E657242750E
:104F70006666657242797465733A2000556D69738F
:104F8000746574652070726F73696D207469736BDA
:104F90006F767920706C6174206E61206865617431
:104FA00062656400506C6561736520706C61636557
:104FB00020737465656C207368656574206F6E205E
:104FC000686561746265642E0050494E44412065F5
:104FD00072776165726D656E0047727A616E6965A0
:104FE0002050494E44410043616C656E74616E64AB
:104FF0006F2050494E44410052697363616C642EC6
:105000002050494E4441004E6168726976616E6974
:105010002050494E44410050494E4441204865616A
:1050200074696E670054656D706572617475722085
:105030007775726465206E69636874206B616C6952
:1050400062726965727400436965706C6E61206B91
:10505000616C69627261636A61206E696520627960
:105060006C612070727A6570726F7761647A6F6EAE
:1050700061004C612074656D706572617475726158
:105080002064652063616C6962726163696F6E2080
:105090006E6F206861207369646F20616A75737434
:1050A0006164610054617261747572612064656C41
:1050B0006C612074656D7065726174757261206ECB
:1050C0006F6E20616E636F726120657365677569CD
:1050D0007461005469736B61726E61206E656279F0
:1050E0006C61207465706C6F746E65207A6B616C96
:1050F0006962726F76616E610054656D7065726190
:10510000747572652063616C6962726174696F6E37
:1051100020686173206E6F74206265656E20727501
:105120006E2079657400504944204B616C69622E91
:10513000004B616C2E205049440043616C2E20507E
:1051400049442020202020202020202020004361CE
:105150006C2E2050494400504944206B616C2E2035
:10516000202020202020202020200050494420639F
:10517000616C2E2020202020202020202020005084
:105180004944204B616C69622E20666572746967C0
:10519000004B616C2E20504944207A616B6F6E6326
:1051A0007A6F6E610043616C2E2050494420746513
:1051B000726D696E6164610043616C2E20504944D8
:1051C00020636F6D706C65746100504944206B61A1
:1051D0006C2E20756B6F6E63656E610050494420C4
:1051E00063616C2E2066696E69736865640050495E
:1051F00044204B616C696272696572756E67004B21
:10520000616C69627261636A612050494400436164
:105210006C6962726163696F6E205049440043613A
:105220006C696272617A696F6E6520504944005002
:105230004944206B616C6962726163650050494446
:105240002063616C6962726174696F6E004472758B
:10525000636B20756E74657262726563682E0050B0
:10526000727A6572776163206472756B0050617544
:1052700073617220696D70726573696F6E004D6540
:1052800074746920696E20706175736100506F7A63
:1052900061737461766974207469736B0050617511
:1052A0007365207072696E74004C6567656E206569
:1052B000696E20426C61747420506170696572205F
:1052C000756E746572206469652044756573652028
:1052D0007761656872656E6420646572204B616CED
:1052E000696272696572756E6720646572206572A5
:1052F0007374656E20342050756E6B74652E205764
:10530000656E6E206469652044756573652064610F
:1053100073205061706965722065696E6B6C656D94
:105320006D742C20447275636B657220736F666FA9
:10533000727420617573736368616C74656E005577
:105340006D69657363206B6172746B652070617049
:1053500069657275206E6120706F646B6C61646347
:105360006520692074727A796D616A20706F64209B
:105370006479737A6120706F64637A617320706FEF
:105380006D69617275207069657277737A79636887
:1053900020342070756E6B746F772E204A65736CA5
:1053A00069206479737A61207A616861637A79200F
:1053B0006F207061706965722C2077796C61637AF7
:1053C000206472756B61726B652E00436F6C6F6346
:1053D000617220756E6120686F6A6120646520705B
:1053E0006170656C20736F627265206C61207375EB
:1053F000706572666963696520646520696D7072A5
:105400006573696F6E20647572616E7465206C617E
:105410002063616C6962726163696F6E20646520EC
:105420006C6F73207072696D65726F7320342070B9
:10543000756E746F732E205369206C6120626F71DA
:1054400075696C6C61206D7565766520656C207082
:105450006170656C2C2061706167617220696D708C
:105460007265736F726120696E6D656469617461E4
:105470006D656E74652E00506F72726520756E20BA
:10548000666F676C696F20736F74746F206C27751B
:1054900067656C6C6F20647572616E7465206C61F9
:1054A0002063616C696272617A696F6E6520646500
:1054B00069207072696D6920342070756E74692E70
:1054C00020496E206361736F206C277567656C6C73
:1054D0006F206D756F766120696C20666F676C69EF
:1054E0006F20737065676E6572652070726F6E7481
:1054F000616D656E7465206C61207374616D70619F
:105500006E74652E00556D697374657465206C69E1
:10551000737420706170697275206E6120706F64A1
:105520006C6F7A6B752061207564727A756A746528
:10553000206A656A20706F6420747279736B6F756E
:1055400020626568656D206D6572656E6920707298
:10555000766E696368203420626F64752E20506F08
:105560006B756420747279736B61207A61636879FA
:1055700074692070617069722C207679706E657420
:1055800065207469736B61726E752E00506C616377
:10559000652061207368656574206F662070617096
:1055A000657220756E64657220746865206E6F7A0E
:1055B0007A6C6520647572696E6720746865206313
:1055C000616C6962726174696F6E206F66206669D2
:1055D000727374203420706F696E74732E20496664
:1055E00020746865206E6F7A7A6C652063617463DD
:1055F000686573207468652070617065722C207016
:105600006F776572206F66662074686520707269B6
:105610006E74657220696D6D6564696174656C791D
:105620002E006F6B004F6666004B65696E65204209
:1056300065776567756E672E0053696E206D6F76AE
:10564000696D69656E746F004E657373756E206D5C
:105650006F76696D656E746F2E004E6F206D6F767C
:10566000652E004B65696E65205344204B61727452
:1056700065004272616B206B617274792053440043
:105680004E6F20686179207461726A65746120537D
:1056900044004E657373756E61205344005A616413
:1056A0006E61205344206B61727461004E6F205311
:1056B00044206361726400447565736500447973C6
:1056C0007A61005567656C6C6F00547279736B6119
:1056D000004E6F7A7A6C650046696C2E206E6963A5
:1056E00068742067656C6164656E004272616B204E
:1056F00066696C616D656E74750046696C2E206E0E
:105700006F20696E74726F64756369646F004669B7
:105710006C2E206E6F6E20636172696361746F001E
:1057200046696C616D656E74206E657A617665643C
:10573000656E0046696C616D656E74206E6F7420D5
:105740006C6F6164656400466172626520756E6BA2
:105750006C6172004B6F6C6F72207A616E69656369
:105760007A79737A2E00436F6C6F72206E6F2068A7
:105770006F6D6F67656E656F00436F6C6F7265204C
:105780006E6F6E207075726F004261727661206E6E
:10579000656E6920636973746100436F6C6F72207A
:1057A0006E6F7420636C656172004E65696E004EA9
:1057B0006965004E65004E6F004269747465206132
:1057C0006B7475616C6973696572656E2E005072D9
:1057D0006F737A65207A616B7475616C697A6F7723
:1057E00061630041637475616C697A617220706FE6
:1057F00072206661766F7200507265676120616722
:1058000067696F726E612E0050726F73696D2061EF
:105810006B7475616C697A756A74652E00506C657D
:1058200061736520757067726164652E004E6575E1
:1058300065204669726D776172652056657273697D
:105840006F6E20766572667565676261723A0057A1
:1058500079737A6C61206E6F776120776572736AF5
:1058600061206669726D776172653A004E75657682
:105870006F206669726D7761726520646973706FFD
:105880006E69626C653A004E756F7661207665725E
:1058900073696F6E652064656C206669726D7761EF
:1058A000726520646973706F6E6962696C65005619
:1058B00079736C61206E6F7661207665727A6520EF
:1058C0006669726D776172653A004E657720666928
:1058D000726D776172652076657273696F6E206193
:1058E0007661696C61626C653A00426577656765EF
:1058F000205A0050727A6573756E6163205A004DAC
:105900006F766572205A004D756F7669205A005087
:105910006F73756E6F7574205A004D6F7665205ADF
:105920000042657765676520590050727A65737526
:105930006E61632059004D6F7665722059004D7578
:105940006F7669205900506F73756E6F75742059AA
:10595000004D6F7665205900426577656765205870
:105960000050727A6573756E61632058004D6F76D2
:1059700065722058004D756F7669205800506F731E
:10598000756E6F75742058004D6F76652058004510
:10599000787472756972004D756F766920457374FD
:1059A0007275736F72650045787472756465720004
:1059B0004B616C696272696572656E20766F6E20EC
:1059C0005A2E2044726568656E20536965206465AF
:1059D0006E204B6E6F706620626973206465722062
:1059E0006F6265726520416E7363686C61672065E4
:1059F0007272656963687420776972642E204B6CDB
:105A000069636B656E205369652064656E204B6E1B
:105A10006F70662077656E6E2065732067616E7AA1
:105A2000206F62656E20776972642E004B616C692D
:105A3000627261636A61205A2E2050727A656B72BD
:105A400065632067616C6B652C20616279207072E0
:105A50007A6573756E6163206F73205A20646F20BE
:105A6000676F726E796368206B72616E636F7765C2
:105A70006B2E204E616369736E696A2C20627920F7
:105A8000706F7477696572647A69632E0043616C24
:105A9000696272616E646F205A2E204769726120BC
:105AA000656C20626F746F6E207061726120737517
:105AB00062697220656C206578747275736F7220EC
:105AC000686173746120746F636172206C6F7320FE
:105AD000746F706573207375706572696F7265732A
